:020000040800F2
:10000000901100204D020008550200085702000818
:10001000590200085B0200085D02000800000000B1
:100020000000000000000000000000009D0100082A
:100030006102000800000000E101000879130008D7
:1000400067020008670200086702000867020008EC
:1000500067020008670200086702000867020008DC
:1000600067020008670200086702000867020008CC
:1000700067020008670200086702000867020008BC
:1000800067020008670200086702000867020008AC
:10009000670200086702000867020008670200089C
:1000A000670200086702000867020008670200088C
:1000B000670200086702000867020008670200087C
:1000C000670200086702000867020008670200086C
:1000D000670200086702000867020008670200085C
:1000E000670200086702000867020008670200084C
:1000F000670200086702000867020008670200083C
:10010000000000000000000000000000670200087E
:10011000670200086702000867020008670200081B
:10012000670200086702000867020008670200080B
:1001300067020008670200080000000000000000DD
:10014000670200086702000867020008000000005C
:10015000000000000000000000000000000000009F
:1001600000000000000000006702000867020008AD
:10017000670200080000000000000000000000000E
:100180000000000067020008DFF80CD000F094F8CF
:10019000004800474118000890110020234B1968BF
:1001A0000868B0E8F04F80F309884FF0000080F352
:1001B000118870470000000003480068006880F361
:1001C000088862B600DF00BF08ED00E0DFF80C0031
:1001D000016841F470010160704700BF88ED00E0E4
:1001E000EFF30980114B1A681EF0100F08BF20EDC5
:1001F000108A20E9F04F106008B44FF0500080F3EF
:10020000118801F069FD4FF0000080F3118808BCEF
:1002100019680868B0E8F04F1EF0100F08BFB0EC86
:10022000108A80F30988704700BF00BF0C000020CF
:10023000EFF311804FF0500181F31188704780F384
:1002400011887047EFF3058070470000064880472B
:1002500006480047FEE7FEE7FEE7FEE7FEE7FEE7AB
:10026000FEE7FEE7FEE7FEE7E1130008890100086C
:1002700040EA01039B0703D009E008C9121F08C028
:10028000042AFAD203E011F8013B00F8013B521EA8
:10029000F9D27047D2B201E000F8012B491EFBD21F
:1002A00070470022F6E710B513460A460446194681
:1002B000FFF7F0FF204610BD064C074D06E0E06852
:1002C00040F0010394E8070098471034AC42F6D39D
:1002D000FFF75EFF98210008B82100082DE9F04FD4
:1002E000DFF864B100224FF001084FF0030A4FF02D
:1002F0000F090BF1040E00BF0B6808FA02F423404B
:10030000A34271D14D68022D01D0122D0ED1D50816
:1003100000EB850CDCF820505607F70E09FA07F6BB
:10032000B5430E69BE402E43CCF8206006685500E8
:100330000F790AFA05FC07F0030726EA0C06AF401E
:10034000374307604E68012E05D0022E03D0112ED0
:1003500001D0122E10D18668CF6826EA0C0607FA63
:1003600005F7374387604668A6430C79C4F3001449
:1003700004FA02F434434460C6688C6826EA0C062A
:1003800004FA05F43443C4604C68E40056D52F4C9D
:10039000A56945F00105A5612D4C22F003052E1934
:1003A000B5689407270F09FA07F4A543B0F1904FF9
:1003B00004D0284CA04203D1012417E0002415E00A
:1003C000254CA04201D1022410E0244CA04201D1CE
:1003D00003240BE0224CA04201D1042406E0214C6E
:1003E000A04202D1052401E028E0062404FA07F423
:1003F0002C43B460DBF800405D464E689C43F60336
:1004000000D51C432C60DEF8004075464E689C43C6
:10041000B60300D51C432C600B4D08352C684E6884
:100420009C43F60200D51C432C60074D0C352C680C
:100430004E689C43B60200D51C432C60521C102A07
:10044000FFF45AAFBDE8F08F0004014000100240F5
:10045000000001400004004800080048000C00486B
:10046000001000480014004842694A404261704749
:1004700001480068704700005800002002480168E9
:10048000491C01607047000058000020074810B563
:10049000016841F010010160032000F045F80020E0
:1004A00000F006F800F015F8002010BD0020024012
:1004B00010B5044600F076FA4FF47A71B0FBF1F013
:1004C00000F0AEFD00222146501E00F00DF8002085
:1004D00010BD10B5032000F027F80022BDE8104041
:1004E0001146501EAFF30080F0B40E4B1B680D4652
:1004F000C3F30223C3F10706042E00D90426191DF5
:10050000072901D2002300E0DB1E012404FA06F1D2
:10051000491E294099409C40641E14402143F0BC70
:1005200000F00ABF0CED00E0064900F00702086881
:100530004FF6FF03184040EA0220034A10430860C8
:10054000704700000CED00E00000FA052DE9F047CF
:10055000044600686E4DC00362D5E86940F08050E3
:10056000E8616C4E306840F480703060FFF780FFC7
:10057000074604E0FFF77CFFC01B642825D83068DD
:10058000C005F7D5286AA18800F4407001F44071D5
:100590000126884207D0286A5F4920F440700E6027
:1005A00000220A6028626068B0F5807F32D1FFF7D0
:1005B0005FFF074641F288394FF0020808E000BFAC
:1005C000FFF756FFC11B494502D90320BDE8F0875C
:1005D00098FAA8F1B1FA81F141F040014046B6EB3A
:1005E000511F01D129680BE090FAA0F1B1FA81F115
:1005F00041F04001B0EB511F01D1296A00E0696A66
:1006000098FAA8F0B0FA80F000F01F0206FA02F0A3
:100610000142D5D0286A616820F4407008432862FE
:100620002078C00705D0286BA16820F0030008439C
:1006300028632078800705D5286BE16820F44030D6
:10064000084328632078400705D5286B216920F4EA
:100650004020084328632078800605D5286BE1698F
:1006600020F01000084328632068800305D56868DF
:10067000A16B20F48000084368602078400605D50F
:10068000286B216A20F020000843286320780007A7
:1006900005D5286B616920F4401008432863207851
:1006A000C00605D5286BA16920F4400008432863E3
:1006B0002088800505D56868E16A20F400000843B9
:1006C00068602078000605D5E86A616A20F4F87051
:1006D0000843E8622088C00505D5E86AA16A20F4CD
:1006E00078500843E8622088C00405D5286B216B48
:1006F00020F48070084328632088800405D5286B87
:10070000616B20F400700843286300205EE700005E
:100710000010024000700040400442422DE9F047C2
:10072000DFF8789205460E46D9F80000022300F063
:100730000707012041044206994C41F28838B7422C
:1007400071D2D9F800C02CF0070C4CEA060CC9F89D
:1007500000C0D9F8007007F00707B7426FD12E78B4
:10076000B60705D56668AF6826F0F0063E436660BA
:100770002E78F60756D06E68012E0BD0022E1ED0B2
:1007800093FAA3F1B1FA81F141F02001490924D093
:10079000216823E091FAA1F2B2FA82F242F020023B
:1007A000520901D0226800E0626A91FAA1F1B1FA1F
:1007B00081F101F01F018840024240D017E092FA17
:1007C000A2F1B1FA81F141F02001490901D021687B
:1007D00000E0616A92FAA2F202E0616A93FAA3F27F
:1007E000B2FA82F202F01F029040014227D0606804
:1007F00020F0030030436060FFF73AFE0646686869
:10080000012809D00228474613D01EE0FFF730FE2A
:10081000801BB84201D992E047466068C0F381006E
:100820000128F3D1A1E015E0FFF722FE801BB842BA
:1008300073D86068C0F381000228F5D195E092E09A
:10084000FFF716FE801BB84279D8606810F00C0FD5
:10085000F6D18AE02F78BF0707D56768D5F808C0BA
:1008600027F0F00747EA0C0767602F78FF076DD085
:100870006F68012F0BD0022F1ED093FAA3F1B1FAAB
:1008800081F141F02001490924D0216823E091FA47
:10089000A1F2B2FA82F242F02002520901D022689B
:1008A00000E0626A91FAA1F1B1FA81F101F01F0151
:1008B0008840024257D017E092FAA2F1B1FA81F1D2
:1008C00041F02001490901D0216800E0616A92FAF3
:1008D000A2F202E0616A93FAA3F2B2FA82F202F0A3
:1008E0001F02904001423ED0606820F00300384370
:1008F0006060FFF7BDFD07466868012807D0022841
:1009000011D01FE0FFF7B4FDC11B414517D8606847
:10091000C0F381000128F5D118E010E0FFF7A8FD31
:10092000C11B41450BD86068C0F381000228F5D196
:100930000CE000BFFFF79CFDC11B414502D903201D
:10094000BDE8F087606810F00C0FF3D1D9F8001003
:1009500021F007013143C9F80010D9F8000000F078
:100960000700B04201D00120EAE72878400705D50A
:100970006068E96820F4E060084360602878000758
:1009800006D56068296920F4605040EAC1006060C3
:100990000020FFF78DFD0020D2E70000002002407C
:1009A0000010024010B500F043F808494968F022F1
:1009B00092FAA2F201F0F001B2FA82F2D140044AB6
:1009C000515CC8400349086010BD0000001002409F
:1009D000102100086400002010B5FFF7E3FF07496D
:1009E00049684FF4E06292FAA2F201F4E061B2FACF
:1009F00082F2D140024A515CC84010BD0010024052
:100A00001021000810B5FFF7CDFF074949684FF4E2
:100A1000605292FAA2F201F46051B2FA82F2D1402D
:100A2000024A515CC84010BD00100240102100086D
:100A3000154B10B55A68154802F00C0104291FD057
:100A400008291DD14FF4701494FAA4F402F4701123
:100A5000B4FA84F421FA04F10D4CDB6A615C0F24D2
:100A600094FAA4F403F00F03B4FA84F423FA04F321
:100A7000074C1034D203E35C03D5B0FBF3F04843DA
:100A800010BD0448484310BD0010024000127A0017
:100A9000F020000800093D002DE9F05F05460078D0
:100AA000FD4EC0074FF000084FF0010425D07068DC
:100AB0006704C0F38100012807D07068C0F381008B
:100AC00002281BD17068C00318D597FAA7F0B0FAB6
:100AD00080F040F02000400901D0306800E0706AEA
:100AE00097FAA7F1B1FA81F101F01F0104FA01F1BF
:100AF000084270D0686801287ED16CE086F80280D8
:100B0000FFF7B6FC824641F2883905E0FFF7B0FCFA
:100B1000A0EB0A01494570D897FAA7F0B0FA80F027
:100B200040F02000400901D0306800E0706A97FA78
:100B3000A7F1B1FA81F101F01F0104FA01F10842B5
:100B4000E4D12879B070F06AA96820F00F0008435A
:100B5000F0626868012803D0FFF78AFC824625E02E
:100B6000FFF786FC824605E0FFF782FCA0EB0A0156
:100B70004945D0D897FAA7F0B0FA80F040F02000AD
:100B8000400901D0306800E0706A97FAA7F1B1FA25
:100B900081F101F01F0104FA01F10842E4D01AE0EA
:100BA000FFF766FCA0EB0A014945B4D897FAA7F015
:100BB000B0FA80F040F02000400901D0306800E039
:100BC000706A97FAA7F1B1FA81F101F01F0104FAF6
:100BD00001F10842E4D12878DFF8C09280074FF095
:100BE000020733D570684FF0F80B10F00C0F0AD0E5
:100BF0007068C0F3810001E097E06CE1022826D123
:100C00007068C00323D497FAA7F0B0FA80F040F0E0
:100C10002000400901D0306800E0706A97FAA7F11F
:100C2000B1FA81F101F01F0104FA01F1084202D08A
:100C30002869012879D13068696920F0F8029BFAA7
:100C4000ABF0B0FA80F081400A43326051E028698D
:100C500068B3C9F80040FFF70BFC824606E000BF0E
:100C6000FFF706FCA0EB0A0064289ED897FAA7F0CD
:100C7000B0FA80F040F02000400901D0306800E078
:100C8000706A97FAA7F1B1FA81F101F01F0104FA35
:100C900001F10842E4D030689BFAABF26969B2FA1C
:100CA00082F220F0F80091400843306021E0C9F85A
:100CB0000080FFF7DDFB824606E000BFFFF7D8FBB0
:100CC000A0EB0A006428D0D897FAA7F0B0FA80F019
:100CD00040F02000400901D0306800E0706A97FAC7
:100CE000A7F1B1FA81F101F01F0104FA01F1084204
:100CF000E4D1287800075ED56948A96969B3046022
:100D0000FFF7B6FB824605E0FFF7B2FBA0EB0A0057
:100D10006428AAD897FAA7F0B0FA80F040F06000F3
:100D2000B4EB501F02D130680CE076E197FAA7F0DF
:100D3000B0FA80F040F06000B7EB501F01D1306A8C
:100D400000E0706A97FAA7F1B1FA81F101F01F0192
:100D500004FA01F21042D7D02DE0C0F80080FFF76E
:100D600087FB824606E000BFFFF782FBA0EB0A008C
:100D70006428A8D897FAA7F0B0FA80F040F0600095
:100D8000B4EB501F01D130680BE097FAA7F0B0FA2E
:100D900080F040F06000B7EB501F01D1306A00E0F6
:100DA000706A97FAA7F1B1FA81F101F01F0104FA14
:100DB00001F21042D8D1287840076CD5F06940F094
:100DC0008050F061DFF8DCB0DBF8001041F4807196
:100DD000CBF80010FFF74CFB824605E0FFF748FB1D
:100DE000A0EB0A00642876D8DBF80000C005F5D532
:100DF000306A20F005003062FFF73AFB834641F28B
:100E0000883A05E0FFF734FBA0EB0B01514562D8AF
:100E100097FAA7F0B0FA80F040F04000B4EB501F12
:100E200001D130680BE097FAA7F0B0FA80F040F0FB
:100E30004000B7EB501F01D1306A00E0706A97FAAA
:100E4000A7F1B1FA81F101F01F0104FA01F10842A2
:100E5000D8D1306AE96820F0050008433062E868BC
:100E6000012803D0FFF704FB83463BE0FFF700FBBC
:100E7000834605E0FFF7FCFAA0EB0B0151452AD8A9
:100E800097FAA7F0B0FA80F040F04000B4EB501FA2
:100E90000AD1306814E046E00010024000004242EF
:100EA000800442420070004097FAA7F0B0FA80F048
:100EB00040F04000B7EB501F01D1306A00E0706A8B
:100EC00097FAA7F1B1FA81F101F01F0204FA02F1D9
:100ED0000842CFD027E074E0FFF7CAFAA0EB0B017D
:100EE00051456ED897FAA7F0B0FA80F040F0400074
:100EF000B4EB501F01D130680BE097FAA7F0B0FABD
:100F000080F040F04000B7EB501F01D1306A00E0A4
:100F1000706A97FAA7F1B1FA81F101F01F0204FAA1
:100F200002F10842D8D1E869D8B37168C1F38101F0
:100F3000022973D04FF000770228C9F8608003D0EF
:100F4000FFF796FA054651E0FFF792FA804605E072
:100F5000FFF78EFAA0EB0800642844D897FAA7F0B0
:100F6000B0FA80F040F02000400901D0306800E085
:100F7000706A97FAA7F1B1FA81F101F01F0104FA42
:100F800001F10842E4D1D5E908100843716821F461
:100F9000741108437060C9F86040FFF769FA0546AC
:100FA00005E038E0FFF764FA401B64281BD897FA85
:100FB000A7F0B0FA80F040F02000400902D030687D
:100FC00001E010E0706A97FAA7F1B1FA81F101F03F
:100FD0001F0104FA01F10842E4D01CE0FFF748FACF
:100FE000401B642802D90320BDE8F09F97FAA7F0C0
:100FF000B0FA80F040F02000400901D0306800E0F5
:10100000706A97FAA7F1B1FA81F101F01F0104FAB1
:1010100001F10842E2D10020E6E7FFE70120E3E723
:1010200010B5401EB0F1807F01D3012010BD4FF0FC
:10103000E02460610F21601700F07EF90020A061BC
:1010400007202061002010BD10B5040003D094F8E3
:10105000690010B104E0012010BD204600F026F820
:10106000022084F869002068016821F00101016014
:10107000204600F0A9FA0128EED0606A10B120469F
:1010800000F016FA2068416821F490414160206820
:10109000816821F02A0181602068016841F0010126
:1010A00001602046BDE8104000F066BA00B5006857
:1010B0000C4985B0884212D10B48816941F48041C6
:1010C00081613020009002200190012002900020D8
:1010D00003900720049069460448FFF7FFF805B025
:1010E00000BD000000380140001002400008004828
:1010F00010B590F86930012B01D0122B40D199B175
:1011000092B190F86840012C3AD0012480F86840F0
:101110004165A0F85820A0F85A208168FF22B1F557
:10112000805F03D039B10BE0012010BD016911BB14
:1011300040F2FF1102E00169E9B17F21A0F85C10E3
:10114000002180F86A10122B18D0222280F8692022
:101150000268136843F4807313600268936843F075
:101160000103936080F868100068016841F0200175
:101170000160002010BDA0F85C20E1E73222E5E725
:10118000022010BD2DE9F047044690F86900994609
:101190000D46012801D0222852D115B30AB394F884
:1011A000681001294CD00126002784F8686084F873
:1011B0006A70222818D0122084F86900A4F8502000
:1011C000A4F852204FF48058B4F852004B46401E09
:1011D000A4F8520000228021204600F0D9FAC8B9B4
:1011E00004E00120BDE8F0873220E5E7A068404533
:1011F00001D1206980B115F8010B21680885B4F888
:1012000052000028E0D14B4600224021204600F049
:10121000BFFA30B10320E5E735F8020BC0F3080050
:10122000EBE794F86900322806D084F8696000BFC3
:1012300084F868700020D5E7222084F86900F7E779
:101240000220CFE7F0B52D4885B0416941F4001187
:101250004161416941F400214161416941F48001EA
:101260004161416941F400314161416941F48021AA
:1012700041613720009022480024CDE90104214E2D
:1012800069463046FFF72AF84FF6087000900125AE
:10129000CDE90154694630460394FFF71FF8CDE9C4
:1012A00000544FF09047694638460294FFF716F80D
:1012B000E02000900226CDE901640520CDE903403D
:1012C00069463846FFF70AF84FF4C0500090CDE960
:1012D00001640E20CDE9034069463846FEF7FEFF63
:1012E000C02000901220CDE901050420CDE9034083
:1012F00069460548FEF7F2FF05B0F0BD0010024058
:101300000000121000100048000400480948084975
:1013100001604FF416414160002181600C22C160E0
:10132000C0E904128161C16101624162FFF78CBEB4
:1013300000380140200D00200907090E002803DABB
:1013400000F00F00024A00E0024A8154704700009A
:1013500014ED00E000E400E0064D4FF480744FF41B
:10136000FA7621462846FFF77FF8304600F0AAFAC1
:10137000F7E700000010004810B500F0EFFD08B1DD
:1013800000F01AFDBDE81040FFF778B870B59EB0C8
:101390000225012610200095CDE9046000244FF4B9
:1013A0006010CDE9084007956846FFF775FB0520FA
:1013B000CDE919056802CDE91B40022119A81D9449
:1013C000FFF7ACF90AA80A960C94FFF7BFF8034898
:1013D000816941F0010181611EB070BD00100240C1
:1013E0001448016841F4700101601348016841F03C
:1013F000010101604168114A114041600168104AD1
:1014000011400160016821F480210160416821F4EC
:10141000FE014160C16A21F00F01C162016B094AFE
:1014200011400163002181600249C00380390860D6
:101430007047000088ED00E0001002400CC07FF80B
:10144000FFFFF6FECCFC00FF012207490748FFF72B
:101450004FFE28B96423012203490448FFF792FE96
:10146000012000F02FFAEFE75C000020200D0020A3
:101470001FB50AA041F2883490E80E00C068CDE99B
:101480000012CDE9023064230D2269460748FFF7B8
:1014900079FE204600F016FAF5E700005541525457
:1014A0003120416C6976650D0A000000200D002096
:1014B00090F82410C90706D001684A68836A22F4AC
:1014C00000321A434A6090F82410890706D5016853
:1014D0004A68C36A22F480321A434A6090F82410A2
:1014E000490706D501684A68036B22F480221A4333
:1014F0004A6090F82410090706D501684A68436BD2
:1015000022F400421A434A6090F82410C90606D516
:1015100001688A68836B22F480521A438A6090F8CB
:101520002410890606D501688A68C36B22F400522C
:101530001A438A6090F82410490611D501684A6858
:10154000036C22F480121A434A60016CB1F5801FCB
:1015500006D101684A68436C22F4C0021A434A600B
:1015600090F82410090606D501684A68806C22F4B8
:10157000002202434A60704770B50025044680F897
:101580006A50006800686FF07E46000707D5334652
:1015900000224FF40011204600F0FAF858B92068F4
:1015A0000068400709D5334600224FF480012046E9
:1015B00000F0EEF808B1032070BD683401206070BF
:1015C0002570002070BD00002DE9F0410446102078
:1015D0002369A268E6691A436369002133431A4309
:1015E00023680D461E6849F20C67BE4316431E6011
:1015F00022685368E66823F4405333435360236AF8
:10160000A2691A4323689E6826F4306616439E60DA
:10161000574F2268574B0603BA420CD11B6B13F08D
:10162000030306D0012B4DD0022B4DD0032B4CD100
:1016300046E0012049E0504FBA420CD11B6B13F435
:1016400040333BD0B3423DD0B3F5003F3CD0B3F57F
:10165000403F3AD134E0494FBA420DD11B6B13F4ED
:1016600040232BD0B3F5802F2CD0B3F5002F2BD0F7
:10167000B3F5402F29D123E0414FBA420DD11B6B66
:1016800013F440131AD0B3F5801F1BD0B3F5001F1D
:101690001AD0B3F5401F18D112E03A4FBA4214D114
:1016A0001B6B13F4400309D0B3F5800F0AD0B3F5D8
:1016B000000F09D0B3F5400F07D101E0002004E08E
:1016C000022002E0042000E00820E3694FF4004714
:1016D000BB4226D109281DD2DFE800F00508101C06
:1016E000151C1C1C1800FFF777F901E0FFF78AF9B9
:1016F00061684000B0FBF1F081B20CE02249606803
:10170000B1FBF0F0F8E7FFF793F9F1E76068B6FB9B
:10171000F0F0F1E7012521F00F00C1F34201084389
:101720001AE0092820D2DFE800F005080B1F111F7E
:101730001F1F1A00FFF750F90AE0FFF763F907E0EF
:1017400012496068B1FBF0F080B20BE0FFF770F96E
:101750006168B0FBF1F080B22168C86005E06068A4
:10176000B7FBF0F0D06000E001252846BDE8F0812D
:101770000038014000100240004400400048004092
:10178000004C0040005000400024F40000127A0099
:101790002DE9F0471D4690460E460446FEF768FECA
:1017A00007465FEA08004FF000094FF0030808D031
:1017B00030E0681C05D095B1FEF75AFEC01BA84268
:1017C0000DD82068C06936EA0000F2D127E0681C15
:1017D00020D025B1FEF74CFEC01BA8421AD92068C4
:1017E000016821F0800101602068016821F020017A
:1017F00001602068016821F48071016020688168BF
:1018000021F00101816084F8698084F868900320E8
:10181000BDE8F0872068C06936EA0000D7D0002014
:10182000F6E702E008C8121F08C1002AFAD1704783
:101830007047002001E001C1121F002AFBD1704750
:1018400090B0FEF723FEFFF7A1FDFFF7FBFCFFF7CB
:101850005DFD00F06FFA164C142216496060684670
:10186000FEF706FD0021684600F03BF800F062FA42
:10187000104960601422143105A8FEF7F9FC00211C
:1018800005A800F02EF800F055FA0A49606014220D
:1018900028310AA8FEF7ECFC00210AA800F021F884
:1018A00000F048FA00216060084600F012F8FEE7F8
:1018B0005C0000202021000801460020842900D07F
:1018C000C81C704710B500B9012000F0BDF9002018
:1018D00010BD10B508B100F004F800F0CFF90020F9
:1018E00010BD30B5044685B00D46B0F90800FFF7CD
:1018F000E3FF002104AA0090CDE901210391208A91
:101900002B4682B2D4E9001000F068FA049805B0C2
:1019100030BD000070B50B4C054620684560E0689E
:101920002168854201F1040104D2606BBDE870407A
:1019300000F00EB9206B00F00BF9E06A854200D28E
:10194000E56270BD0C00002070B5124E124C1AE01A
:1019500000F0BAF93068D0B100F076FB00F01CF965
:10196000F068C568281D00F0D3F8A068401EA0608C
:101970006068401E606000F01DF9286B00F024F9DB
:10198000284600F021F960680028E1D170BD00F020
:101990005BFBF8E7400100200C0000200E480F49D7
:1019A00010B520F007000023C1E900030B4A00F640
:1019B000A8310C3A4C07116002D0FEF739FCFEE763
:1019C0004B600B6040F6A833C0E90013506808383C
:1019D00050601807906010BD70010020500000207A
:1019E000044C00BFFFF7B0FF20680128FAD900F0CF
:1019F0001FF9F7E77800002030B5114900E01146E3
:101A00000A688242FBD34B685C18844203D1406869
:101A100018444860084643681C18944209D1084C91
:101A20000C3C2468A24209D052681A4442600A68F9
:101A300012680260814200D0086030BD0460F9E79E
:101A40005000002004484068401C02D0FEF7F0FB24
:101A5000FEE7FEF7EDFBFEE7000000202DE9F04178
:101A60000546002700F030F91F4E306808B9FFF72F
:101A700095FFB068054232D18DB30835680704D0B0
:101A800005F00700C0F10800054445B370688542C1
:101A900025D815480C3001460C6801E020460C465C
:101AA0006168A94202D221680029F7D131688C42CD
:101AB00015D007682168016060680837411B10294C
:101AC00004D9601941606560FFF796FF606871682E
:101AD000091A7160B168084360600020206000F05E
:101AE000B3FA3846BDE8F0814400002010B5031F6A
:101AF0004FF0807424381C60C161044981616FF02B
:101B0000020160E81112243010BD0000451A0008DF
:101B1000D0E901128A60D0E90112516001694A6876
:101B2000824201D182684A60002202610868401E38
:101B30000860704700F108014FF0FF32C0E9011260
:101B4000C16001610021016070470021016170479F
:101B500030B50B685A1C02D000F1080202E002699D
:101B600004E02246546825689D42FAD953684B60C8
:101B700099608A60516008610168491C016030BD4C
:101B800042684A6093688B6093685960916008610D
:101B90000168491C0160704710B5FEF749FB044815
:101BA0004168491CBFF34F8FBFF36F8F416010BD79
:101BB0000000002003494868401E486001D1FEF73C
:101BC0003EBB70470000002070B500281DD00F4DAF
:101BD000A0F108046068A968084204D022682AB10C
:101BE000FEF726FBFEE7FEF723FBFEE78843606077
:101BF00000F06AF860686968084468602046FFF78A
:101C0000FBFEBDE8704000F01FBA70BD440000202C
:101C100006484FF47A710068B0FBF1F14FF0E02014
:101C2000491E4161072101617047000064000020E6
:101C300004494FF080500860BFF34F8FBFF36F8FA0
:101C40007047000004ED00E010B502000FD000F076
:101C50003BF80948C16800688C18001DFFF758FF61
:101C60002046FFF757FE00F0EFF9002803D1BDE84A
:101C70001040FFF7DDBF10BD0C0000201FB5002491
:101C8000009401940294234680220BA10C480394F3
:101C900000F0A4F8012804D000280CD1FEF7C8FAFF
:101CA000FEE7FEF7C5FA074801214161C460BDE8BF
:101CB0001F4000F045B81FBD49444C4500000000DE
:101CC000E11900080C00002002488169491C81616B
:101CD000704700000C000020144810B5816911B154
:101CE0000121016210BD00210162114903E0D2B15E
:101CF0000269521E0261026902EB820251F822203F
:101D0000002A0269F3D002EB820201EB820101F1A9
:101D100008034A6852684A609A4201D152684A6090
:101D2000D168016010BDFEF783FAFEE70C000020C9
:101D300078000020014840687047000044000020FF
:101D400070B5194A1478FF2010701178174B01F004
:101D5000500018700720986006E000BF4FEA41610C
:101D6000A0F101004FEA11610D06F7D4000200F462
:101D7000E060986014700E48016841F470010160E1
:101D8000016841F070410160FFF742FF0020586098
:101D9000FEF71CFA0748016841F040410160FEF778
:101DA0000BFA002070BD000000E400E000000020FD
:101DB00020ED00E034EF00E010B5FEF739FA00F056
:101DC000DBF818B104494FF080500860BDE81040BE
:101DD0000020FEF734BA000004ED00E02DE9F05FCA
:101DE0001546DDE90B840A9E9B4689465FEA000A98
:101DF00004D0072E05D3FEF71BFAFEE7FEF718FA0C
:101E0000FEE75020FFF72AFE07001CD01CB9A800EF
:101E1000FFF724FE04463C63200011D0A900A52250
:101E2000FEF738FA6FF00301386B01EB85013C4691
:101E3000084420F00707780708D0FEF7F9F9FEE715
:101E40003846FFF7C1FE4FF0FF3480E04946354683
:101E5000002022180B5C82F834300A5C12B1401C5E
:101E60001028F6D3002184F84310072D00D306254F
:101E7000E562201DE564FFF768FE04F11800FFF736
:101E800064FEC5F107012461A1615A4651463846F6
:101E90006462FFF72BFE2060B8F1000F01D0C8F894
:101EA0000040FFF779FE2B4DA868401CA860286809
:101EB000DFF8A48010B1686948B32DE02C60A868F1
:101EC000012829D15FF0000707EB870108EB8100AB
:101ED000FFF730FE7F1C072FF6D31F488C30FFF72B
:101EE00029FE1D48A030FFF725FE1B48B430FFF740
:101EF00021FE1948C830FFF71DFE1748DC30FFF7F8
:101F000019FE15488C3028631430686304E0286893
:101F1000C06AB04200D82C60A86A401CA862606405
:101F2000E06A2969884200D9286100EB800108EB4A
:101F30008100211DFFF724FE0124FFF73BFE6869A5
:101F400028B12868C06AB04201D2FFF771FE20466E
:101F5000BDE8F09F0C000020780000200548416992
:101F600019B1806918B10220704700207047012024
:101F7000704700000C0000202DE9F047304C00268F
:101F8000A06940B1E069401CE061206A00B101260F
:101F90003046BDE8F087E068401CE060E7684FF03D
:101FA000FF39A7B9206B006810B1FEF741F9FEE7D1
:101FB000206B616B21636063606A401C6062206B10
:101FC0000068E8B1206BC068C0684068E062E06A01
:101FD000DFF87080874209D3206B006890B1206BD6
:101FE000C068C568686887420ED2E0622068C06A2F
:101FF00000EB800158F821000128C6D90126C4E76A
:102000004846E3E74846F0E7281DFFF781FDA86A48
:1020100018B105F11800FFF77BFDE86A21698842D5
:1020200000D9206100EB800108EB8100291DFFF73A
:10203000A7FDE86A2168C96A8842CDD30126CBE7AB
:102040000C000020780000202DE9F047264C0027E6
:10205000A06938B1FFF7A0FDA069401EA061A0698A
:1020600018B13BE0FEF7E4F8FEE7A1681F4E01203F
:10207000A1B3A6F1B40980463068E0B1F068C56844
:1020800005F11800FFF744FD281DFFF741FDE86A40
:102090002169884200D9206100EB800109EB8100B1
:1020A000291DFFF76DFDE86A2168C96A8842E3D3FC
:1020B000C4F82080E0E7E06950B14546E06938B1F6
:1020C000FFF75AFF00B12562E069401EE061F5E7C5
:1020D000206A012802D10127FFF7AAFDFFF76AFD58
:1020E0003846BDE8F08700000C0000202C010020DD
:1020F00002030405060708090A0B0C0D0E0F101049
:102100000102030405060708090A0B0C0D0E0F1047
:10211000000000000102030401020304060708098D
:102120006E210008591300080000000000000000A4
:1021300080000000822100087114000800000000E7
:1021400000000000800000005C2100084914000825
:1021500000000000000000008000000055415254C3
:102160005265636569766554687265616400506F95
:102170007765724C6564426C696E6B546872656118
:102180006400554152545472616E736D69745468A1
:102190007265616400000000B821000800000020A2
:1021A0007800000022180008302200087800002083
:1021B000181100003218000800000000AAAAAAAAFC
:1021C000000000000000000000000000000000000F
:1021D00000000000000000000000000000000000FF
:1021E00000000000000000000000000000000000EF
:1021F000FFFFFFFF000000000000000000000000E3
:10220000B00B000000000000000000000000000013
:1022100000000000310000000000000000127A0001
:102220000000000000000000010203040607080986
:040000050800018965
:00000001FF
