:0A0000000C9434000C9400000C94E2
:10000A0000000C945A000C9400000C9400000C940C
:10001A0000000C9400000C9400000C9400000C9456
:10002A0000000C9400000C9400000C9400000C9446
:10003A0000000C9400000C9400000C9400000C9436
:10004A0000000C9400000C9400000C9400000C9426
:10005A0000000C9400000C9400000C940000F8942A
:10006A00EE27EFBBF1E0F5BFE5BFF8E1A895A4B72D
:10007A00A77FA4BFF0936000E09360008DE0A2E048
:10008A00BB27ED938A95E9F780E098E0A0E0B1E01C
:10009A00ED930197E9F7E0E0EEBBEFEFEDBFE8E0A3
:1000AA00EEBFC0E0D5E00C94FF020A921A92FA92CF
:1000BA006A937A938A939A93AA93BA93EA93FA934E
:1000CA00EFB7EA93E0E0E0936B000E945A34E093C2
:1000DA000805F0930905E1E0E0930605E0910705BC
:1000EA00EB3111F4C5D275C0EB3219F40E94003419
:1000FA0070C0EB3349F4EFE4EBB9A1E0B0E00E9441
:10010A002034EFE4EBB965C0EB3449F4E09108051B
:10011A00F0910905E0930005F09301055AC0EB350B
:10012A0049F4E0910805F0910905E0930205F0937E
:10013A0003054FC0EB3649F4E0910805F091090533
:10014A00E0930405F093050544C0EB3879F4A091D7
:10015A000805B0910905119731F0A0910805B091F1
:10016A000905109711F4C090080533C0EB3989F4DA
:10017A00A0910805B0910905119731F0A0910805E1
:10018A00B0910905109721F4E0910805E093120552
:10019A0020C0EB3AB1F4A0910805B0910905A53F3A
:1001AA00E6E0BE0720F4AC30E3E0BE0708F408C07E
:1001BA00E0910805F0910905E0931005F093110507
:1001CA0008C0EB3C19F40E944D3403C0EB3D09F41E
:1001DA00DCD1E0E2E0936B00E991EFBFF991E9919C
:1001EA00B991A9919991899179916991F990199007
:1001FA00099018952A98A1E0B0E00E9420342A9A22
:10020A00E3E1E4B9A1E0B0E00E942034E7E1E4B917
:10021A00ACECADD0AEE4ABD0A0E0A9D0A0E0A7D0C2
:10022A00AFE7A5D008950E94C73600E010E020E0AD
:10023A0030E050E0E0E0E09306052A98A1E0B0E063
:10024A000E9420342A9AE3E1E4B9A1E0B0E00E94D6
:10025A002034E7E1E4B9ACEC8AD0AEEB88D0AFD079
:10026A000E2F1127ACD0FE2FE0E00E0F1F1F17FF35
:10027A0008C051E0EFEFFFEFE01BF10B31968F0161
:10028A0001C050E020E030E000FF02C02F5B3F4F8A
:10029A0001FF02C023583F4F02FF02C026503F4FC2
:1002AA0003FF02C02C503E4FF8010E948136AAE09B
:1002BA00B0E00E948F36BF01D901E4E6F0E00E9467
:1002CA009736E60FF71F8F01513031F4E0E0F5E081
:1002DA00E01BF10B8F0102C000501B4F2A98A1E0CE
:1002EA00B0E00E9420342A9AE3E1E4B9A1E0B0E048
:1002FA000E942034E7E1E4B9ACEC39D0A4E437D069
:10030A00E0910605E03071F400240016010629F098
:10031A00EFEFFFEFE017F10709F404C000930A05B5
:10032A0010930B050E94CE36269608952A98A1E0CE
:10033A00B0E00E9420342A9AE3E1E4B9A1E0B0E0F7
:10034A000E942034E7E1E4B9ACEC11D0A1E0B0E0BE
:10035A000E942034AEE40BD0A0E009D0A0E007D080
:10036A00AFE705D0A1E0B0E00E9420340895AA9337
:10037A000E94C9363C8110E01830E8F42A9800E05F
:10038A00023010F40F5FFCCFE5B1AE2FE32FE1701E
:10039A00EE0FEE0FE470EA2BE5B900E0023310F439
:1003AA000F5FFCCF2A9A00E0043610F40F5FFCCFEF
:1003BA0036951F5FE1CF0E94D036259608950E9498
:1003CA00C93630E010E0183018F536952A9800E062
:1003DA00023010F40F5FFCCF2A9AE3E1E4B900E09F
:1003EA000C3010F40F5FFCCFE3B1E470E295E07FCC
:1003FA00EE0F3E2B00E00E3110F40F5FFCCFE7E169
:10040A00E4B900E0043610F40F5FFCCF1F5FDBCFC6
:10041A00E32F0E94D036249608952897E0E0E883D7
:10042A00E983EA83EB83EC83ED83EE83EF83FBDEE0
:10043A00E0910E05E03079F4E0E0E0930F05EC83FB
:10044A00ED83EE83EF830E94AF362898ACEFB3E0DA
:10045A000E94CC347FC0E0910A05F0910B05662713
:10046A0077270E943C35DF01CB01E0910C05F09122
:10047A000D05662777270E943C350E94B4360E94F4
:10048A006F350E94AA36AAE0B7ED83E29DE30E9487
:10049A00C635AC81BD818E819F810E947635EC8301
:1004AA00FD836E837F83AC81BD818E819F81E0E075
:1004BA00F0E06FE774E40E94593609F010F40C94E6
:1004CA006A02EC83FD836E837F83AC81BD818E815A
:1004DA009F810E94C1362CF0E0E0EC83ED83EE832D
:1004EA00EF83AC81BD818E819F810E94C1360CF45D
:1004FA00289AEC81FD816E817F810E940335DF019C
:10050A000E94CC34EC81FD816E817F810E9403358B
:10051A00EC3FA3E0FA0709F02898AC81BD818E81EF
:10052A009F81E0E0F0E06FE774E40E946F350E947B
:10053A000335DF010E94CC34AC81BD818E819F815D
:10054A00E0E0F0E060E870E40E9414360E940335AF
:10055A00E0930F05F894E0910A05F0910B05E093FA
:10056A001305F0931405E0910F05E0931505E0914A
:10057A001205E0930E05E0911005F0911105E09344
:10058A000C05F0930D05789452CFE0E8E0936100F2
:10059A00E0E0E0936100E0930705E0930805E0934B
:1005AA000905E4E15E2EEAE24E2ECC24E0E0E09377
:1005BA000005E0930105E8EEF3E0E0930205F0930D
:1005CA000305E0E0E0930405E0930505E0930605E2
:1005DA00E7E1E4B9E4E0E5B9EFEFEAB9EFECEBB94A
:1005EA00EFE3E7B9E0E0E8B9A1DE0E9400340E9437
:1005FA004D340895CADFE0E0F5E0E0930A05F09390
:10060A000B05E2ECF6E0E0930C05F0930D05E0E053
:10061A00E0930E05E0930F05EDDD05DEA0EBB4E0F7
:10062A000E94CC3400DEA0EBB4E00E94CC34E0910E
:10063A000A05F0910B05E0931305F0931405E09178
:10064A000C05F0910D05E0931005F0931105E0916A
:10065A000E05E0931205E0910F05E0931505E1E020
:10066A00E0936800E0E2E0936B007894D6DEFFCF77
:10067A001A930A932898A0910405B0910505D89772
:10068A00B0F0A0910405B0910505A93EE3E0BE07CC
:10069A0010F40E940034A0910405B0910505D79783
:1006AA000E9420340E9437340E944D340CC00E94AC
:1006BA0037340E944D340E940034A0910405B09151
:1006CA0005050E9420340E94DC33E0910005F09178
:1006DA0001053A968F010E94CE33F80131978F01B6
:1006EA00D1F70E9437340E94CE330E9437340091EA
:1006FA00020510910305E4E15E2EE8E2DE2E0E9477
:10070A00CE33E4E15E2EE8E24E2EE4E17E2EE8E20C
:10071A006E2EE4E19E2EE8E28E2EE4E1BE2EE8E2A1
:10072A00AE2E58B848B878B868B898B888B8B8B883
:10073A00A8B858B848B878B868B898B888B8B8B8EF
:10074A00A8B858B848B878B868B898B888B8B8B8DF
:10075A00A8B858B848B878B868B898B888B8B8B8CF
:10076A00A8B858B848B878B868B898B888B8B8B8BF
:10077A00A8B858B848B878B868B898B888B8B8B8AF
:10078A00A8B858B848B878B868B898B888B8B8B89F
:10079A00A8B858B848B878B868B898B888B8B8B88F
:1007AA00A8B858B848B878B868B898B888B8B8B87F
:1007BA00A8B858B848B878B868B898B888B8B8B86F
:1007CA00A8B858B848B878B868B898B888B8B8B85F
:1007DA00A8B858B848B878B868B898B888B8B8B84F
:1007EA00A8B8E4E15E2EEAE24E2EE4E17E2EEAE2C9
:1007FA006E2EE4E19E2EEAE28E2EE4E1BE2EEAE2BD
:10080A00AE2E58B848B878B868B898B888B8B8B8A2
:10081A00A8B8CC2071F4E4E15E2EEAE24E2EE4E1BF
:10082A007E2EEAE26E2EE4E19E2EEAE28E2EE4E1CC
:10083A000DC0E4E15E2EEAE24E2EEAE17E2EEAE205
:10084A006E2EEAE19E2EEAE28E2EEAE1BE2EEAE260
:10085A00AE2E58B848B878B868B898B888B8B8B852
:10086A00A8B858B848B878B868B898B888B8B8B8BE
:10087A00A8B858B848B878B868B898B888B8B8B8AE
:10088A00A8B858B848B878B868B898B888B8B8B89E
:10089A00A8B858B848B878B868B898B888B8B8B88E
:1008AA00A8B858B848B878B868B898B888B8B8B87E
:1008BA00A8B858B848B878B868B898B888B8B8B86E
:1008CA00A8B858B848B878B868B898B888B8B8B85E
:1008DA00A8B858B848B878B868B898B888B8B8B84E
:1008EA00A8B858B848B878B868B898B888B8B8B83E
:1008FA00A8B858B848B878B868B898B888B8B8B82E
:10090A00A8B858B848B878B868B898B888B8B8B81D
:10091A00A8B858B848B878B868B898B888B8B8B80D
:10092A00A8B858B848B878B868B898B888B8B8B8FD
:10093A00A8B858B848B878B868B898B888B8B8B8ED
:10094A00A8B858B848B878B868B898B888B8B8B8DD
:10095A00A8B858B848B878B868B898B888B8B8B8CD
:10096A00A8B858B848B878B868B898B888B8B8B8BD
:10097A00A8B858B848B878B868B898B888B8B8B8AD
:10098A00A8B858B848B878B868B898B888B8B8B89D
:10099A00A8B858B848B878B868B898B888B8B8B88D
:1009AA00A8B858B848B878B868B898B888B8B8B87D
:1009BA00A8B858B848B878B868B898B888B8B8B86D
:1009CA00A8B858B848B878B868B898B888B8B8B85D
:1009DA00A8B858B848B878B868B898B888B8B8B84D
:1009EA00A8B858B848B878B868B898B888B8B8B83D
:1009FA00A8B858B848B878B868B898B888B8B8B82D
:100A0A00A8B858B848B878B868B898B888B8B8B81C
:100A1A00A8B858B848B878B868B898B888B8B8B80C
:100A2A00A8B858B848B878B868B898B888B8B8B8FC
:100A3A00A8B858B848B878B868B898B888B8B8B8EC
:100A4A00A8B858B848B878B868B898B888B8B8B8DC
:100A5A00A8B858B848B878B868B898B888B8B8B8CC
:100A6A00A8B858B848B878B868B898B888B8B8B8BC
:100A7A00A8B858B848B878B868B898B888B8B8B8AC
:100A8A00A8B858B848B878B868B898B888B8B8B89C
:100A9A00A8B858B848B878B868B898B888B8B8B88C
:100AAA00A8B858B848B878B868B898B888B8B8B87C
:100ABA00A8B858B848B878B868B898B888B8B8B86C
:100ACA00A8B858B848B878B868B898B888B8B8B85C
:100ADA00A8B858B848B878B868B898B888B8B8B84C
:100AEA00A8B858B848B878B868B898B888B8B8B83C
:100AFA00A8B858B848B878B868B898B888B8B8B82C
:100B0A00A8B858B848B878B868B898B888B8B8B81B
:100B1A00A8B858B848B878B868B898B888B8B8B80B
:100B2A00A8B858B848B878B868B898B888B8B8B8FB
:100B3A00A8B858B848B878B868B898B888B8B8B8EB
:100B4A00A8B858B848B878B868B898B888B8B8B8DB
:100B5A00A8B858B848B878B868B898B888B8B8B8CB
:100B6A00A8B858B848B878B868B898B888B8B8B8BB
:100B7A00A8B858B848B878B868B898B888B8B8B8AB
:100B8A00A8B858B848B878B868B898B888B8B8B89B
:100B9A00A8B858B848B878B868B898B888B8B8B88B
:100BAA00A8B858B848B878B868B898B888B8B8B87B
:100BBA00A8B858B848B878B868B898B888B8B8B86B
:100BCA00A8B858B848B878B868B898B888B8B8B85B
:100BDA00A8B858B848B878B868B898B888B8B8B84B
:100BEA00A8B858B848B878B868B898B888B8B8B83B
:100BFA00A8B858B848B878B868B898B888B8B8B82B
:100C0A00A8B858B848B878B868B898B888B8B8B81A
:100C1A00A8B858B848B878B868B898B888B8B8B80A
:100C2A00A8B858B848B878B868B898B888B8B8B8FA
:100C3A00A8B858B848B878B868B898B888B8B8B8EA
:100C4A00A8B858B848B878B868B898B888B8B8B8DA
:100C5A00A8B858B848B878B868B898B888B8B8B8CA
:100C6A00A8B858B848B878B868B898B888B8B8B8BA
:100C7A00A8B858B848B878B868B898B888B8B8B8AA
:100C8A00A8B858B848B878B868B898B888B8B8B89A
:100C9A00A8B858B848B878B868B898B888B8B8B88A
:100CAA00A8B858B848B878B868B898B888B8B8B87A
:100CBA00A8B858B848B878B868B898B888B8B8B86A
:100CCA00A8B858B848B878B868B898B888B8B8B85A
:100CDA00A8B858B848B878B868B898B888B8B8B84A
:100CEA00A8B858B848B878B868B898B888B8B8B83A
:100CFA00A8B858B848B878B868B898B888B8B8B82A
:100D0A00A8B858B848B878B868B898B888B8B8B819
:100D1A00A8B858B848B878B868B898B888B8B8B809
:100D2A00A8B858B848B878B868B898B888B8B8B8F9
:100D3A00A8B858B848B878B868B898B888B8B8B8E9
:100D4A00A8B858B848B878B868B898B888B8B8B8D9
:100D5A00A8B858B848B878B868B898B888B8B8B8C9
:100D6A00A8B858B848B878B868B898B888B8B8B8B9
:100D7A00A8B858B848B878B868B898B888B8B8B8A9
:100D8A00A8B858B848B878B868B898B888B8B8B899
:100D9A00A8B858B848B878B868B898B888B8B8B889
:100DAA00A8B858B848B878B868B898B888B8B8B879
:100DBA00A8B858B848B878B868B898B888B8B8B869
:100DCA00A8B858B848B878B868B898B888B8B8B859
:100DDA00A8B858B848B878B868B898B888B8B8B849
:100DEA00A8B858B848B878B868B898B888B8B8B839
:100DFA00A8B858B848B878B868B898B888B8B8B829
:100E0A00A8B858B848B878B868B898B888B8B8B818
:100E1A00A8B858B848B878B868B898B888B8B8B808
:100E2A00A8B858B848B878B868B898B888B8B8B8F8
:100E3A00A8B858B848B878B868B898B888B8B8B8E8
:100E4A00A8B858B848B878B868B898B888B8B8B8D8
:100E5A00A8B858B848B878B868B898B888B8B8B8C8
:100E6A00A8B858B848B878B868B898B888B8B8B8B8
:100E7A00A8B858B848B878B868B898B888B8B8B8A8
:100E8A00A8B858B848B878B868B898B888B8B8B898
:100E9A00A8B858B848B878B868B898B888B8B8B888
:100EAA00A8B858B848B878B868B898B888B8B8B878
:100EBA00A8B858B848B878B868B898B888B8B8B868
:100ECA00A8B858B848B878B868B898B888B8B8B858
:100EDA00A8B858B848B878B868B898B888B8B8B848
:100EEA00A8B858B848B878B868B898B888B8B8B838
:100EFA00A8B858B848B878B868B898B888B8B8B828
:100F0A00A8B858B848B878B868B898B888B8B8B817
:100F1A00A8B858B848B878B868B898B888B8B8B807
:100F2A00A8B858B848B878B868B898B888B8B8B8F7
:100F3A00A8B858B848B878B868B898B888B8B8B8E7
:100F4A00A8B858B848B878B868B898B888B8B8B8D7
:100F5A00A8B858B848B878B868B898B888B8B8B8C7
:100F6A00A8B858B848B878B868B898B888B8B8B8B7
:100F7A00A8B858B848B878B868B898B888B8B8B8A7
:100F8A00A8B858B848B878B868B898B888B8B8B897
:100F9A00A8B858B848B878B868B898B888B8B8B887
:100FAA00A8B858B848B878B868B898B888B8B8B877
:100FBA00A8B858B848B878B868B898B888B8B8B867
:100FCA00A8B858B848B878B868B898B888B8B8B857
:100FDA00A8B858B848B878B868B898B888B8B8B847
:100FEA00A8B858B848B878B868B898B888B8B8B837
:100FFA00A8B858B848B878B868B898B888B8B8B827
:10100A00A8B858B848B878B868B898B888B8B8B816
:10101A00A8B858B848B878B868B898B888B8B8B806
:10102A00A8B858B848B878B868B898B888B8B8B8F6
:10103A00A8B858B848B878B868B898B888B8B8B8E6
:10104A00A8B858B848B878B868B898B888B8B8B8D6
:10105A00A8B858B848B878B868B898B888B8B8B8C6
:10106A00A8B858B848B878B868B898B888B8B8B8B6
:10107A00A8B858B848B878B868B898B888B8B8B8A6
:10108A00A8B858B848B878B868B898B888B8B8B896
:10109A00A8B858B848B878B868B898B888B8B8B886
:1010AA00A8B858B848B878B868B898B888B8B8B876
:1010BA00A8B858B848B878B868B898B888B8B8B866
:1010CA00A8B858B848B878B868B898B888B8B8B856
:1010DA00A8B858B848B878B868B898B888B8B8B846
:1010EA00A8B858B848B878B868B898B888B8B8B836
:1010FA00A8B858B848B878B868B898B888B8B8B826
:10110A00A8B858B848B878B868B898B888B8B8B815
:10111A00A8B858B848B878B868B898B888B8B8B805
:10112A00A8B858B848B878B868B898B888B8B8B8F5
:10113A00A8B858B848B878B868B898B888B8B8B8E5
:10114A00A8B858B848B878B868B898B888B8B8B8D5
:10115A00A8B858B848B878B868B898B888B8B8B8C5
:10116A00A8B858B848B878B868B898B888B8B8B8B5
:10117A00A8B858B848B878B868B898B888B8B8B8A5
:10118A00A8B858B848B878B868B898B888B8B8B895
:10119A00A8B858B848B878B868B898B888B8B8B885
:1011AA00A8B858B848B878B868B898B888B8B8B875
:1011BA00A8B858B848B878B868B898B888B8B8B865
:1011CA00A8B858B848B878B868B898B888B8B8B855
:1011DA00A8B858B848B878B868B898B888B8B8B845
:1011EA00A8B858B848B878B868B898B888B8B8B835
:1011FA00A8B858B848B878B868B898B888B8B8B825
:10120A00A8B858B848B878B868B898B888B8B8B814
:10121A00A8B858B848B878B868B898B888B8B8B804
:10122A00A8B858B848B878B868B898B888B8B8B8F4
:10123A00A8B858B848B878B868B898B888B8B8B8E4
:10124A00A8B858B848B878B868B898B888B8B8B8D4
:10125A00A8B858B848B878B868B898B888B8B8B8C4
:10126A00A8B858B848B878B868B898B888B8B8B8B4
:10127A00A8B858B848B878B868B898B888B8B8B8A4
:10128A00A8B858B848B878B868B898B888B8B8B894
:10129A00A8B858B848B878B868B898B888B8B8B884
:1012AA00A8B858B848B878B868B898B888B8B8B874
:1012BA00A8B858B848B878B868B898B888B8B8B864
:1012CA00A8B858B848B878B868B898B888B8B8B854
:1012DA00A8B858B848B878B868B898B888B8B8B844
:1012EA00A8B858B848B878B868B898B888B8B8B834
:1012FA00A8B858B848B878B868B898B888B8B8B824
:10130A00A8B858B848B878B868B898B888B8B8B813
:10131A00A8B858B848B878B868B898B888B8B8B803
:10132A00A8B858B848B878B868B898B888B8B8B8F3
:10133A00A8B858B848B878B868B898B888B8B8B8E3
:10134A00A8B858B848B878B868B898B888B8B8B8D3
:10135A00A8B858B848B878B868B898B888B8B8B8C3
:10136A00A8B858B848B878B868B898B888B8B8B8B3
:10137A00A8B858B848B878B868B898B888B8B8B8A3
:10138A00A8B858B848B878B868B898B888B8B8B893
:10139A00A8B858B848B878B868B898B888B8B8B883
:1013AA00A8B858B848B878B868B898B888B8B8B873
:1013BA00A8B858B848B878B868B898B888B8B8B863
:1013CA00A8B858B848B878B868B898B888B8B8B853
:1013DA00A8B858B848B878B868B898B888B8B8B843
:1013EA00A8B858B848B878B868B898B888B8B8B833
:1013FA00A8B858B848B878B868B898B888B8B8B823
:10140A00A8B858B848B878B868B898B888B8B8B812
:10141A00A8B858B848B878B868B898B888B8B8B802
:10142A00A8B858B848B878B868B898B888B8B8B8F2
:10143A00A8B858B848B878B868B898B888B8B8B8E2
:10144A00A8B858B848B878B868B898B888B8B8B8D2
:10145A00A8B858B848B878B868B898B888B8B8B8C2
:10146A00A8B858B848B878B868B898B888B8B8B8B2
:10147A00A8B858B848B878B868B898B888B8B8B8A2
:10148A00A8B858B848B878B868B898B888B8B8B892
:10149A00A8B858B848B878B868B898B888B8B8B882
:1014AA00A8B858B848B878B868B898B888B8B8B872
:1014BA00A8B858B848B878B868B898B888B8B8B862
:1014CA00A8B858B848B878B868B898B888B8B8B852
:1014DA00A8B858B848B878B868B898B888B8B8B842
:1014EA00A8B858B848B878B868B898B888B8B8B832
:1014FA00A8B858B848B878B868B898B888B8B8B822
:10150A00A8B858B848B878B868B898B888B8B8B811
:10151A00A8B858B848B878B868B898B888B8B8B801
:10152A00A8B858B848B878B868B898B888B8B8B8F1
:10153A00A8B858B848B878B868B898B888B8B8B8E1
:10154A00A8B858B848B878B868B898B888B8B8B8D1
:10155A00A8B858B848B878B868B898B888B8B8B8C1
:10156A00A8B858B848B878B868B898B888B8B8B8B1
:10157A00A8B858B848B878B868B898B888B8B8B8A1
:10158A00A8B858B848B878B868B898B888B8B8B891
:10159A00A8B858B848B878B868B898B888B8B8B881
:1015AA00A8B858B848B878B868B898B888B8B8B871
:1015BA00A8B858B848B878B868B898B888B8B8B861
:1015CA00A8B858B848B878B868B898B888B8B8B851
:1015DA00A8B858B848B878B868B898B888B8B8B841
:1015EA00A8B858B848B878B868B898B888B8B8B831
:1015FA00A8B858B848B878B868B898B888B8B8B821
:10160A00A8B858B848B878B868B898B888B8B8B810
:10161A00A8B858B848B878B868B898B888B8B8B800
:10162A00A8B858B848B878B868B898B888B8B8B8F0
:10163A00A8B858B848B878B868B898B888B8B8B8E0
:10164A00A8B858B848B878B868B898B888B8B8B8D0
:10165A00A8B858B848B878B868B898B888B8B8B8C0
:10166A00A8B858B848B878B868B898B888B8B8B8B0
:10167A00A8B858B848B878B868B898B888B8B8B8A0
:10168A00A8B858B848B878B868B898B888B8B8B890
:10169A00A8B858B848B878B868B898B888B8B8B880
:1016AA00A8B858B848B878B868B898B888B8B8B870
:1016BA00A8B858B848B878B868B898B888B8B8B860
:1016CA00A8B858B848B878B868B898B888B8B8B850
:1016DA00A8B858B848B878B868B898B888B8B8B840
:1016EA00A8B858B848B878B868B898B888B8B8B830
:1016FA00A8B858B848B878B868B898B888B8B8B820
:10170A00A8B858B848B878B868B898B888B8B8B80F
:10171A00A8B858B848B878B868B898B888B8B8B8FF
:10172A00A8B858B848B878B868B898B888B8B8B8EF
:10173A00A8B858B848B878B868B898B888B8B8B8DF
:10174A00A8B858B848B878B868B898B888B8B8B8CF
:10175A00A8B858B848B878B868B898B888B8B8B8BF
:10176A00A8B858B848B878B868B898B888B8B8B8AF
:10177A00A8B858B848B878B868B898B888B8B8B89F
:10178A00A8B858B848B878B868B898B888B8B8B88F
:10179A00A8B858B848B878B868B898B888B8B8B87F
:1017AA00A8B858B848B878B868B898B888B8B8B86F
:1017BA00A8B858B848B878B868B898B888B8B8B85F
:1017CA00A8B858B848B878B868B898B888B8B8B84F
:1017DA00A8B858B848B878B868B898B888B8B8B83F
:1017EA00A8B858B848B878B868B898B888B8B8B82F
:1017FA00A8B858B848B878B868B898B888B8B8B81F
:10180A00A8B858B848B878B868B898B888B8B8B80E
:10181A00A8B858B848B878B868B898B888B8B8B8FE
:10182A00A8B858B848B878B868B898B888B8B8B8EE
:10183A00A8B858B848B878B868B898B888B8B8B8DE
:10184A00A8B858B848B878B868B898B888B8B8B8CE
:10185A00A8B858B848B878B868B898B888B8B8B8BE
:10186A00A8B858B848B878B868B898B888B8B8B8AE
:10187A00A8B858B848B878B868B898B888B8B8B89E
:10188A00A8B858B848B878B868B898B888B8B8B88E
:10189A00A8B858B848B878B868B898B888B8B8B87E
:1018AA00A8B858B848B878B868B898B888B8B8B86E
:1018BA00A8B858B848B878B868B898B888B8B8B85E
:1018CA00A8B858B848B878B868B898B888B8B8B84E
:1018DA00A8B858B848B878B868B898B888B8B8B83E
:1018EA00A8B858B848B878B868B898B888B8B8B82E
:1018FA00A8B858B848B878B868B898B888B8B8B81E
:10190A00A8B858B848B878B868B898B888B8B8B80D
:10191A00A8B858B848B878B868B898B888B8B8B8FD
:10192A00A8B858B848B878B868B898B888B8B8B8ED
:10193A00A8B858B848B878B868B898B888B8B8B8DD
:10194A00A8B858B848B878B868B898B888B8B8B8CD
:10195A00A8B858B848B878B868B898B888B8B8B8BD
:10196A00A8B858B848B878B868B898B888B8B8B8AD
:10197A00A8B858B848B878B868B898B888B8B8B89D
:10198A00A8B858B848B878B868B898B888B8B8B88D
:10199A00A8B858B848B878B868B898B888B8B8B87D
:1019AA00A8B858B848B878B868B898B888B8B8B86D
:1019BA00A8B858B848B878B868B898B888B8B8B85D
:1019CA00A8B858B848B878B868B898B888B8B8B84D
:1019DA00A8B858B848B878B868B898B888B8B8B83D
:1019EA00A8B858B848B878B868B898B888B8B8B82D
:1019FA00A8B858B848B878B868B898B888B8B8B81D
:101A0A00A8B858B848B878B868B898B888B8B8B80C
:101A1A00A8B858B848B878B868B898B888B8B8B8FC
:101A2A00A8B858B848B878B868B898B888B8B8B8EC
:101A3A00A8B858B848B878B868B898B888B8B8B8DC
:101A4A00A8B858B848B878B868B898B888B8B8B8CC
:101A5A00A8B858B848B878B868B898B888B8B8B8BC
:101A6A00A8B858B848B878B868B898B888B8B8B8AC
:101A7A00A8B858B848B878B868B898B888B8B8B89C
:101A8A00A8B858B848B878B868B898B888B8B8B88C
:101A9A00A8B858B848B878B868B898B888B8B8B87C
:101AAA00A8B858B848B878B868B898B888B8B8B86C
:101ABA00A8B858B848B878B868B898B888B8B8B85C
:101ACA00A8B858B848B878B868B898B888B8B8B84C
:101ADA00A8B858B848B878B868B898B888B8B8B83C
:101AEA00A8B858B848B878B868B898B888B8B8B82C
:101AFA00A8B858B848B878B868B898B888B8B8B81C
:101B0A00A8B858B848B878B868B898B888B8B8B80B
:101B1A00A8B858B848B878B868B898B888B8B8B8FB
:101B2A00A8B858B848B878B868B898B888B8B8B8EB
:101B3A00A8B858B848B878B868B898B888B8B8B8DB
:101B4A00A8B858B848B878B868B898B888B8B8B8CB
:101B5A00A8B858B848B878B868B898B888B8B8B8BB
:101B6A00A8B858B848B878B868B898B888B8B8B8AB
:101B7A00A8B858B848B878B868B898B888B8B8B89B
:101B8A00A8B858B848B878B868B898B888B8B8B88B
:101B9A00A8B858B848B878B868B898B888B8B8B87B
:101BAA00A8B858B848B878B868B898B888B8B8B86B
:101BBA00A8B858B848B878B868B898B888B8B8B85B
:101BCA00A8B858B848B878B868B898B888B8B8B84B
:101BDA00A8B858B848B878B868B898B888B8B8B83B
:101BEA00A8B858B848B878B868B898B888B8B8B82B
:101BFA00A8B858B848B878B868B898B888B8B8B81B
:101C0A00A8B858B848B878B868B898B888B8B8B80A
:101C1A00A8B858B848B878B868B898B888B8B8B8FA
:101C2A00A8B858B848B878B868B898B888B8B8B8EA
:101C3A00A8B858B848B878B868B898B888B8B8B8DA
:101C4A00A8B858B848B878B868B898B888B8B8B8CA
:101C5A00A8B858B848B878B868B898B888B8B8B8BA
:101C6A00A8B858B848B878B868B898B888B8B8B8AA
:101C7A00A8B858B848B878B868B898B888B8B8B89A
:101C8A00A8B858B848B878B868B898B888B8B8B88A
:101C9A00A8B858B848B878B868B898B888B8B8B87A
:101CAA00A8B858B848B878B868B898B888B8B8B86A
:101CBA00A8B858B848B878B868B898B888B8B8B85A
:101CCA00A8B858B848B878B868B898B888B8B8B84A
:101CDA00A8B858B848B878B868B898B888B8B8B83A
:101CEA00A8B858B848B878B868B898B888B8B8B82A
:101CFA00A8B858B848B878B868B898B888B8B8B81A
:101D0A00A8B858B848B878B868B898B888B8B8B809
:101D1A00A8B858B848B878B868B898B888B8B8B8F9
:101D2A00A8B858B848B878B868B898B888B8B8B8E9
:101D3A00A8B858B848B878B868B898B888B8B8B8D9
:101D4A00A8B858B848B878B868B898B888B8B8B8C9
:101D5A00A8B858B848B878B868B898B888B8B8B8B9
:101D6A00A8B858B848B878B868B898B888B8B8B8A9
:101D7A00A8B858B848B878B868B898B888B8B8B899
:101D8A00A8B858B848B878B868B898B888B8B8B889
:101D9A00A8B858B848B878B868B898B888B8B8B879
:101DAA00A8B858B848B878B868B898B888B8B8B869
:101DBA00A8B858B848B878B868B898B888B8B8B859
:101DCA00A8B858B848B878B868B898B888B8B8B849
:101DDA00A8B858B848B878B868B898B888B8B8B839
:101DEA00A8B858B848B878B868B898B888B8B8B829
:101DFA00A8B858B848B878B868B898B888B8B8B819
:101E0A00A8B858B848B878B868B898B888B8B8B808
:101E1A00A8B858B848B878B868B898B888B8B8B8F8
:101E2A00A8B858B848B878B868B898B888B8B8B8E8
:101E3A00A8B858B848B878B868B898B888B8B8B8D8
:101E4A00A8B858B848B878B868B898B888B8B8B8C8
:101E5A00A8B858B848B878B868B898B888B8B8B8B8
:101E6A00A8B858B848B878B868B898B888B8B8B8A8
:101E7A00A8B858B848B878B868B898B888B8B8B898
:101E8A00A8B858B848B878B868B898B888B8B8B888
:101E9A00A8B858B848B878B868B898B888B8B8B878
:101EAA00A8B858B848B878B868B898B888B8B8B868
:101EBA00A8B858B848B878B868B898B888B8B8B858
:101ECA00A8B858B848B878B868B898B888B8B8B848
:101EDA00A8B858B848B878B868B898B888B8B8B838
:101EEA00A8B858B848B878B868B898B888B8B8B828
:101EFA00A8B858B848B878B868B898B888B8B8B818
:101F0A00A8B858B848B878B868B898B888B8B8B807
:101F1A00A8B858B848B878B868B898B888B8B8B8F7
:101F2A00A8B858B848B878B868B898B888B8B8B8E7
:101F3A00A8B858B848B878B868B898B888B8B8B8D7
:101F4A00A8B858B848B878B868B898B888B8B8B8C7
:101F5A00A8B858B848B878B868B898B888B8B8B8B7
:101F6A00A8B858B848B878B868B898B888B8B8B8A7
:101F7A00A8B858B848B878B868B898B888B8B8B897
:101F8A00A8B858B848B878B868B898B888B8B8B887
:101F9A00A8B858B848B878B868B898B888B8B8B877
:101FAA00A8B858B848B878B868B898B888B8B8B867
:101FBA00A8B858B848B878B868B898B888B8B8B857
:101FCA00A8B858B848B878B868B898B888B8B8B847
:101FDA00A8B858B848B878B868B898B888B8B8B837
:101FEA00A8B858B848B878B868B898B888B8B8B827
:101FFA00A8B858B848B878B868B898B888B8B8B817
:10200A00A8B858B848B878B868B898B888B8B8B806
:10201A00A8B858B848B878B868B898B888B8B8B8F6
:10202A00A8B858B848B878B868B898B888B8B8B8E6
:10203A00A8B858B848B878B868B898B888B8B8B8D6
:10204A00A8B858B848B878B868B898B888B8B8B8C6
:10205A00A8B858B848B878B868B898B888B8B8B8B6
:10206A00A8B858B848B878B868B898B888B8B8B8A6
:10207A00A8B858B848B878B868B898B888B8B8B896
:10208A00A8B858B848B878B868B898B888B8B8B886
:10209A00A8B858B848B878B868B898B888B8B8B876
:1020AA00A8B858B848B878B868B898B888B8B8B866
:1020BA00A8B858B848B878B868B898B888B8B8B856
:1020CA00A8B858B848B878B868B898B888B8B8B846
:1020DA00A8B858B848B878B868B898B888B8B8B836
:1020EA00A8B858B848B878B868B898B888B8B8B826
:1020FA00A8B858B848B878B868B898B888B8B8B816
:10210A00A8B858B848B878B868B898B888B8B8B805
:10211A00A8B858B848B878B868B898B888B8B8B8F5
:10212A00A8B858B848B878B868B898B888B8B8B8E5
:10213A00A8B858B848B878B868B898B888B8B8B8D5
:10214A00A8B858B848B878B868B898B888B8B8B8C5
:10215A00A8B858B848B878B868B898B888B8B8B8B5
:10216A00A8B858B848B878B868B898B888B8B8B8A5
:10217A00A8B858B848B878B868B898B888B8B8B895
:10218A00A8B858B848B878B868B898B888B8B8B885
:10219A00A8B858B848B878B868B898B888B8B8B875
:1021AA00A8B858B848B878B868B898B888B8B8B865
:1021BA00A8B858B848B878B868B898B888B8B8B855
:1021CA00A8B858B848B878B868B898B888B8B8B845
:1021DA00A8B858B848B878B868B898B888B8B8B835
:1021EA00A8B858B848B878B868B898B888B8B8B825
:1021FA00A8B858B848B878B868B898B888B8B8B815
:10220A00A8B858B848B878B868B898B888B8B8B804
:10221A00A8B858B848B878B868B898B888B8B8B8F4
:10222A00A8B858B848B878B868B898B888B8B8B8E4
:10223A00A8B858B848B878B868B898B888B8B8B8D4
:10224A00A8B858B848B878B868B898B888B8B8B8C4
:10225A00A8B858B848B878B868B898B888B8B8B8B4
:10226A00A8B858B848B878B868B898B888B8B8B8A4
:10227A00A8B858B848B878B868B898B888B8B8B894
:10228A00A8B858B848B878B868B898B888B8B8B884
:10229A00A8B858B848B878B868B898B888B8B8B874
:1022AA00A8B858B848B878B868B898B888B8B8B864
:1022BA00A8B858B848B878B868B898B888B8B8B854
:1022CA00A8B858B848B878B868B898B888B8B8B844
:1022DA00A8B858B848B878B868B898B888B8B8B834
:1022EA00A8B858B848B878B868B898B888B8B8B824
:1022FA00A8B858B848B878B868B898B888B8B8B814
:10230A00A8B858B848B878B868B898B888B8B8B803
:10231A00A8B858B848B878B868B898B888B8B8B8F3
:10232A00A8B858B848B878B868B898B888B8B8B8E3
:10233A00A8B858B848B878B868B898B888B8B8B8D3
:10234A00A8B858B848B878B868B898B888B8B8B8C3
:10235A00A8B858B848B878B868B898B888B8B8B8B3
:10236A00A8B858B848B878B868B898B888B8B8B8A3
:10237A00A8B858B848B878B868B898B888B8B8B893
:10238A00A8B858B848B878B868B898B888B8B8B883
:10239A00A8B858B848B878B868B898B888B8B8B873
:1023AA00A8B858B848B878B868B898B888B8B8B863
:1023BA00A8B858B848B878B868B898B888B8B8B853
:1023CA00A8B858B848B878B868B898B888B8B8B843
:1023DA00A8B858B848B878B868B898B888B8B8B833
:1023EA00A8B858B848B878B868B898B888B8B8B823
:1023FA00A8B858B848B878B868B898B888B8B8B813
:10240A00A8B858B848B878B868B898B888B8B8B802
:10241A00A8B858B848B878B868B898B888B8B8B8F2
:10242A00A8B858B848B878B868B898B888B8B8B8E2
:10243A00A8B858B848B878B868B898B888B8B8B8D2
:10244A00A8B858B848B878B868B898B888B8B8B8C2
:10245A00A8B858B848B878B868B898B888B8B8B8B2
:10246A00A8B858B848B878B868B898B888B8B8B8A2
:10247A00A8B858B848B878B868B898B888B8B8B892
:10248A00A8B858B848B878B868B898B888B8B8B882
:10249A00A8B858B848B878B868B898B888B8B8B872
:1024AA00A8B858B848B878B868B898B888B8B8B862
:1024BA00A8B858B848B878B868B898B888B8B8B852
:1024CA00A8B858B848B878B868B898B888B8B8B842
:1024DA00A8B858B848B878B868B898B888B8B8B832
:1024EA00A8B858B848B878B868B898B888B8B8B822
:1024FA00A8B858B848B878B868B898B888B8B8B812
:10250A00A8B858B848B878B868B898B888B8B8B801
:10251A00A8B858B848B878B868B898B888B8B8B8F1
:10252A00A8B858B848B878B868B898B888B8B8B8E1
:10253A00A8B858B848B878B868B898B888B8B8B8D1
:10254A00A8B858B848B878B868B898B888B8B8B8C1
:10255A00A8B858B848B878B868B898B888B8B8B8B1
:10256A00A8B858B848B878B868B898B888B8B8B8A1
:10257A00A8B858B848B878B868B898B888B8B8B891
:10258A00A8B858B848B878B868B898B888B8B8B881
:10259A00A8B858B848B878B868B898B888B8B8B871
:1025AA00A8B858B848B878B868B898B888B8B8B861
:1025BA00A8B858B848B878B868B898B888B8B8B851
:1025CA00A8B858B848B878B868B898B888B8B8B841
:1025DA00A8B858B848B878B868B898B888B8B8B831
:1025EA00A8B858B848B878B868B898B888B8B8B821
:1025FA00A8B858B848B878B868B898B888B8B8B811
:10260A00A8B858B848B878B868B898B888B8B8B800
:10261A00A8B858B848B878B868B898B888B8B8B8F0
:10262A00A8B858B848B878B868B898B888B8B8B8E0
:10263A00A8B858B848B878B868B898B888B8B8B8D0
:10264A00A8B858B848B878B868B898B888B8B8B8C0
:10265A00A8B858B848B878B868B898B888B8B8B8B0
:10266A00A8B858B848B878B868B898B888B8B8B8A0
:10267A00A8B858B848B878B868B898B888B8B8B890
:10268A00A8B858B848B878B868B898B888B8B8B880
:10269A00A8B858B848B878B868B898B888B8B8B870
:1026AA00A8B858B848B878B868B898B888B8B8B860
:1026BA00A8B858B848B878B868B898B888B8B8B850
:1026CA00A8B858B848B878B868B898B888B8B8B840
:1026DA00A8B858B848B878B868B898B888B8B8B830
:1026EA00A8B858B848B878B868B898B888B8B8B820
:1026FA00A8B858B848B878B868B898B888B8B8B810
:10270A00A8B858B848B878B868B898B888B8B8B8FF
:10271A00A8B858B848B878B868B898B888B8B8B8EF
:10272A00A8B858B848B878B868B898B888B8B8B8DF
:10273A00A8B858B848B878B868B898B888B8B8B8CF
:10274A00A8B858B848B878B868B898B888B8B8B8BF
:10275A00A8B858B848B878B868B898B888B8B8B8AF
:10276A00A8B858B848B878B868B898B888B8B8B89F
:10277A00A8B858B848B878B868B898B888B8B8B88F
:10278A00A8B858B848B878B868B898B888B8B8B87F
:10279A00A8B858B848B878B868B898B888B8B8B86F
:1027AA00A8B858B848B878B868B898B888B8B8B85F
:1027BA00A8B858B848B878B868B898B888B8B8B84F
:1027CA00A8B858B848B878B868B898B888B8B8B83F
:1027DA00A8B858B848B878B868B898B888B8B8B82F
:1027EA00A8B858B848B878B868B898B888B8B8B81F
:1027FA00A8B858B848B878B868B898B888B8B8B80F
:10280A00A8B858B848B878B868B898B888B8B8B8FE
:10281A00A8B858B848B878B868B898B888B8B8B8EE
:10282A00A8B858B848B878B868B898B888B8B8B8DE
:10283A00A8B858B848B878B868B898B888B8B8B8CE
:10284A00A8B858B848B878B868B898B888B8B8B8BE
:10285A00A8B858B848B878B868B898B888B8B8B8AE
:10286A00A8B858B848B878B868B898B888B8B8B89E
:10287A00A8B858B848B878B868B898B888B8B8B88E
:10288A00A8B858B848B878B868B898B888B8B8B87E
:10289A00A8B858B848B878B868B898B888B8B8B86E
:1028AA00A8B858B848B878B868B898B888B8B8B85E
:1028BA00A8B858B848B878B868B898B888B8B8B84E
:1028CA00A8B858B848B878B868B898B888B8B8B83E
:1028DA00A8B858B848B878B868B898B888B8B8B82E
:1028EA00A8B858B848B878B868B898B888B8B8B81E
:1028FA00A8B858B848B878B868B898B888B8B8B80E
:10290A00A8B858B848B878B868B898B888B8B8B8FD
:10291A00A8B858B848B878B868B898B888B8B8B8ED
:10292A00A8B858B848B878B868B898B888B8B8B8DD
:10293A00A8B858B848B878B868B898B888B8B8B8CD
:10294A00A8B858B848B878B868B898B888B8B8B8BD
:10295A00A8B858B848B878B868B898B888B8B8B8AD
:10296A00A8B858B848B878B868B898B888B8B8B89D
:10297A00A8B858B848B878B868B898B888B8B8B88D
:10298A00A8B858B848B878B868B898B888B8B8B87D
:10299A00A8B858B848B878B868B898B888B8B8B86D
:1029AA00A8B858B848B878B868B898B888B8B8B85D
:1029BA00A8B858B848B878B868B898B888B8B8B84D
:1029CA00A8B858B848B878B868B898B888B8B8B83D
:1029DA00A8B858B848B878B868B898B888B8B8B82D
:1029EA00A8B858B848B878B868B898B888B8B8B81D
:1029FA00A8B858B848B878B868B898B888B8B8B80D
:102A0A00A8B858B848B878B868B898B888B8B8B8FC
:102A1A00A8B858B848B878B868B898B888B8B8B8EC
:102A2A00A8B858B848B878B868B898B888B8B8B8DC
:102A3A00A8B858B848B878B868B898B888B8B8B8CC
:102A4A00A8B858B848B878B868B898B888B8B8B8BC
:102A5A00A8B858B848B878B868B898B888B8B8B8AC
:102A6A00A8B858B848B878B868B898B888B8B8B89C
:102A7A00A8B858B848B878B868B898B888B8B8B88C
:102A8A00A8B858B848B878B868B898B888B8B8B87C
:102A9A00A8B858B848B878B868B898B888B8B8B86C
:102AAA00A8B858B848B878B868B898B888B8B8B85C
:102ABA00A8B858B848B878B868B898B888B8B8B84C
:102ACA00A8B858B848B878B868B898B888B8B8B83C
:102ADA00A8B858B848B878B868B898B888B8B8B82C
:102AEA00A8B858B848B878B868B898B888B8B8B81C
:102AFA00A8B858B848B878B868B898B888B8B8B80C
:102B0A00A8B858B848B878B868B898B888B8B8B8FB
:102B1A00A8B858B848B878B868B898B888B8B8B8EB
:102B2A00A8B858B848B878B868B898B888B8B8B8DB
:102B3A00A8B858B848B878B868B898B888B8B8B8CB
:102B4A00A8B858B848B878B868B898B888B8B8B8BB
:102B5A00A8B858B848B878B868B898B888B8B8B8AB
:102B6A00A8B858B848B878B868B898B888B8B8B89B
:102B7A00A8B858B848B878B868B898B888B8B8B88B
:102B8A00A8B858B848B878B868B898B888B8B8B87B
:102B9A00A8B858B848B878B868B898B888B8B8B86B
:102BAA00A8B858B848B878B868B898B888B8B8B85B
:102BBA00A8B858B848B878B868B898B888B8B8B84B
:102BCA00A8B858B848B878B868B898B888B8B8B83B
:102BDA00A8B858B848B878B868B898B888B8B8B82B
:102BEA00A8B858B848B878B868B898B888B8B8B81B
:102BFA00A8B858B848B878B868B898B888B8B8B80B
:102C0A00A8B858B848B878B868B898B888B8B8B8FA
:102C1A00A8B858B848B878B868B898B888B8B8B8EA
:102C2A00A8B858B848B878B868B898B888B8B8B8DA
:102C3A00A8B858B848B878B868B898B888B8B8B8CA
:102C4A00A8B858B848B878B868B898B888B8B8B8BA
:102C5A00A8B858B848B878B868B898B888B8B8B8AA
:102C6A00A8B858B848B878B868B898B888B8B8B89A
:102C7A00A8B858B848B878B868B898B888B8B8B88A
:102C8A00A8B858B848B878B868B898B888B8B8B87A
:102C9A00A8B858B848B878B868B898B888B8B8B86A
:102CAA00A8B858B848B878B868B898B888B8B8B85A
:102CBA00A8B858B848B878B868B898B888B8B8B84A
:102CCA00A8B858B848B878B868B898B888B8B8B83A
:102CDA00A8B858B848B878B868B898B888B8B8B82A
:102CEA00A8B858B848B878B868B898B888B8B8B81A
:102CFA00A8B858B848B878B868B898B888B8B8B80A
:102D0A00A8B858B848B878B868B898B888B8B8B8F9
:102D1A00A8B858B848B878B868B898B888B8B8B8E9
:102D2A00A8B858B848B878B868B898B888B8B8B8D9
:102D3A00A8B858B848B878B868B898B888B8B8B8C9
:102D4A00A8B858B848B878B868B898B888B8B8B8B9
:102D5A00A8B858B848B878B868B898B888B8B8B8A9
:102D6A00A8B858B848B878B868B898B888B8B8B899
:102D7A00A8B858B848B878B868B898B888B8B8B889
:102D8A00A8B858B848B878B868B898B888B8B8B879
:102D9A00A8B858B848B878B868B898B888B8B8B869
:102DAA00A8B858B848B878B868B898B888B8B8B859
:102DBA00A8B858B848B878B868B898B888B8B8B849
:102DCA00A8B858B848B878B868B898B888B8B8B839
:102DDA00A8B858B848B878B868B898B888B8B8B829
:102DEA00A8B858B848B878B868B898B888B8B8B819
:102DFA00A8B858B848B878B868B898B888B8B8B809
:102E0A00A8B858B848B878B868B898B888B8B8B8F8
:102E1A00A8B858B848B878B868B898B888B8B8B8E8
:102E2A00A8B858B848B878B868B898B888B8B8B8D8
:102E3A00A8B858B848B878B868B898B888B8B8B8C8
:102E4A00A8B858B848B878B868B898B888B8B8B8B8
:102E5A00A8B858B848B878B868B898B888B8B8B8A8
:102E6A00A8B858B848B878B868B898B888B8B8B898
:102E7A00A8B858B848B878B868B898B888B8B8B888
:102E8A00A8B858B848B878B868B898B888B8B8B878
:102E9A00A8B858B848B878B868B898B888B8B8B868
:102EAA00A8B858B848B878B868B898B888B8B8B858
:102EBA00A8B858B848B878B868B898B888B8B8B848
:102ECA00A8B858B848B878B868B898B888B8B8B838
:102EDA00A8B858B848B878B868B898B888B8B8B828
:102EEA00A8B858B848B878B868B898B888B8B8B818
:102EFA00A8B858B848B878B868B898B888B8B8B808
:102F0A00A8B858B848B878B868B898B888B8B8B8F7
:102F1A00A8B858B848B878B868B898B888B8B8B8E7
:102F2A00A8B858B848B878B868B898B888B8B8B8D7
:102F3A00A8B858B848B878B868B898B888B8B8B8C7
:102F4A00A8B858B848B878B868B898B888B8B8B8B7
:102F5A00A8B858B848B878B868B898B888B8B8B8A7
:102F6A00A8B858B848B878B868B898B888B8B8B897
:102F7A00A8B858B848B878B868B898B888B8B8B887
:102F8A00A8B858B848B878B868B898B888B8B8B877
:102F9A00A8B858B848B878B868B898B888B8B8B867
:102FAA00A8B858B848B878B868B898B888B8B8B857
:102FBA00A8B858B848B878B868B898B888B8B8B847
:102FCA00A8B858B848B878B868B898B888B8B8B837
:102FDA00A8B858B848B878B868B898B888B8B8B827
:102FEA00A8B858B848B878B868B898B888B8B8B817
:102FFA00A8B858B848B878B868B898B888B8B8B807
:10300A00A8B858B848B878B868B898B888B8B8B8F6
:10301A00A8B858B848B878B868B898B888B8B8B8E6
:10302A00A8B858B848B878B868B898B888B8B8B8D6
:10303A00A8B858B848B878B868B898B888B8B8B8C6
:10304A00A8B858B848B878B868B898B888B8B8B8B6
:10305A00A8B858B848B878B868B898B888B8B8B8A6
:10306A00A8B858B848B878B868B898B888B8B8B896
:10307A00A8B858B848B878B868B898B888B8B8B886
:10308A00A8B858B848B878B868B898B888B8B8B876
:10309A00A8B858B848B878B868B898B888B8B8B866
:1030AA00A8B858B848B878B868B898B888B8B8B856
:1030BA00A8B858B848B878B868B898B888B8B8B846
:1030CA00A8B858B848B878B868B898B888B8B8B836
:1030DA00A8B858B848B878B868B898B888B8B8B826
:1030EA00A8B858B848B878B868B898B888B8B8B816
:1030FA00A8B858B848B878B868B898B888B8B8B806
:10310A00A8B858B848B878B868B898B888B8B8B8F5
:10311A00A8B858B848B878B868B898B888B8B8B8E5
:10312A00A8B858B848B878B868B898B888B8B8B8D5
:10313A00A8B858B848B878B868B898B888B8B8B8C5
:10314A00A8B858B848B878B868B898B888B8B8B8B5
:10315A00A8B858B848B878B868B898B888B8B8B8A5
:10316A00A8B858B848B878B868B898B888B8B8B895
:10317A00A8B858B848B878B868B898B888B8B8B885
:10318A00A8B858B848B878B868B898B888B8B8B875
:10319A00A8B858B848B878B868B898B888B8B8B865
:1031AA00A8B858B848B878B868B898B888B8B8B855
:1031BA00A8B858B848B878B868B898B888B8B8B845
:1031CA00A8B858B848B878B868B898B888B8B8B835
:1031DA00A8B858B848B878B868B898B888B8B8B825
:1031EA00A8B858B848B878B868B898B888B8B8B815
:1031FA00A8B858B848B878B868B898B888B8B8B805
:10320A00A8B858B848B878B868B898B888B8B8B8F4
:10321A00A8B858B848B878B868B898B888B8B8B8E4
:10322A00A8B858B848B878B868B898B888B8B8B8D4
:10323A00A8B858B848B878B868B898B888B8B8B8C4
:10324A00A8B858B848B878B868B898B888B8B8B8B4
:10325A00A8B858B848B878B868B898B888B8B8B8A4
:10326A00A8B858B848B878B868B898B888B8B8B894
:10327A00A8B858B848B878B868B898B888B8B8B884
:10328A00A8B858B848B878B868B898B888B8B8B874
:10329A00A8B858B848B878B868B898B888B8B8B864
:1032AA00A8B858B848B878B868B898B888B8B8B854
:1032BA00A8B858B848B878B868B898B888B8B8B844
:1032CA00A8B858B848B878B868B898B888B8B8B834
:1032DA00A8B858B848B878B868B898B888B8B8B824
:1032EA00A8B858B848B878B868B898B888B8B8B814
:1032FA00A8B858B848B878B868B898B888B8B8B804
:10330A00A8B858B848B878B868B898B888B8B8B8F3
:10331A00A8B858B848B878B868B898B888B8B8B8E3
:10332A00A8B858B848B878B868B898B888B8B8B8D3
:10333A00A8B858B848B878B868B898B888B8B8B8C3
:10334A00A8B858B848B878B868B898B888B8B8B8B3
:10335A00A8B858B848B878B868B898B888B8B8B8A3
:10336A00A8B858B848B878B868B898B888B8B8B893
:10337A00A8B858B848B878B868B898B888B8B8B883
:10338A00A8B858B848B878B868B898B888B8B8B873
:10339A00A8B858B848B878B868B898B888B8B8B863
:1033AA00A8B858B848B878B868B898B888B8B8B853
:1033BA00A8B858B848B878B868B898B888B8B8B843
:1033CA00A8B858B848B878B868B898B888B8B8B833
:1033DA00A8B858B848B878B868B898B888B8B8B823
:1033EA00A8B858B848B878B868B898B888B8B8B813
:1033FA00A8B858B848B878B868B898B888B8B8B803
:10340A00A8B858B848B878B868B898B888B8B8B8F2
:10341A00A8B858B848B878B868B898B888B8B8B8E2
:10342A00A8B858B848B878B868B898B888B8B8B8D2
:10343A00A8B858B848B878B868B898B888B8B8B8C2
:10344A00A8B858B848B878B868B898B888B8B8B8B2
:10345A00A8B858B848B878B868B898B888B8B8B8A2
:10346A00A8B858B848B878B868B898B888B8B8B892
:10347A00A8B858B848B878B868B898B888B8B8B882
:10348A00A8B858B848B878B868B898B888B8B8B872
:10349A00A8B858B848B878B868B898B888B8B8B862
:1034AA00A8B858B848B878B868B898B888B8B8B852
:1034BA00A8B858B848B878B868B898B888B8B8B842
:1034CA00A8B858B848B878B868B898B888B8B8B832
:1034DA00A8B858B848B878B868B898B888B8B8B822
:1034EA00A8B858B848B878B868B898B888B8B8B812
:1034FA00A8B858B848B878B868B898B888B8B8B802
:10350A00A8B858B848B878B868B898B888B8B8B8F1
:10351A00A8B858B848B878B868B898B888B8B8B8E1
:10352A00A8B858B848B878B868B898B888B8B8B8D1
:10353A00A8B858B848B878B868B898B888B8B8B8C1
:10354A00A8B858B848B878B868B898B888B8B8B8B1
:10355A00A8B858B848B878B868B898B888B8B8B8A1
:10356A00A8B858B848B878B868B898B888B8B8B891
:10357A00A8B858B848B878B868B898B888B8B8B881
:10358A00A8B858B848B878B868B898B888B8B8B871
:10359A00A8B858B848B878B868B898B888B8B8B861
:1035AA00A8B858B848B878B868B898B888B8B8B851
:1035BA00A8B858B848B878B868B898B888B8B8B841
:1035CA00A8B858B848B878B868B898B888B8B8B831
:1035DA00A8B858B848B878B868B898B888B8B8B821
:1035EA00A8B858B848B878B868B898B888B8B8B811
:1035FA00A8B858B848B878B868B898B888B8B8B801
:10360A00A8B858B848B878B868B898B888B8B8B8F0
:10361A00A8B858B848B878B868B898B888B8B8B8E0
:10362A00A8B858B848B878B868B898B888B8B8B8D0
:10363A00A8B858B848B878B868B898B888B8B8B8C0
:10364A00A8B858B848B878B868B898B888B8B8B8B0
:10365A00A8B858B848B878B868B898B888B8B8B8A0
:10366A00A8B858B848B878B868B898B888B8B8B890
:10367A00A8B858B848B878B868B898B888B8B8B880
:10368A00A8B858B848B878B868B898B888B8B8B870
:10369A00A8B858B848B878B868B898B888B8B8B860
:1036AA00A8B858B848B878B868B898B888B8B8B850
:1036BA00A8B858B848B878B868B898B888B8B8B840
:1036CA00A8B858B848B878B868B898B888B8B8B830
:1036DA00A8B858B848B878B868B898B888B8B8B820
:1036EA00A8B858B848B878B868B898B888B8B8B810
:1036FA00A8B858B848B878B868B898B888B8B8B800
:10370A00A8B858B848B878B868B898B888B8B8B8EF
:10371A00A8B858B848B878B868B898B888B8B8B8DF
:10372A00A8B858B848B878B868B898B888B8B8B8CF
:10373A00A8B858B848B878B868B898B888B8B8B8BF
:10374A00A8B858B848B878B868B898B888B8B8B8AF
:10375A00A8B858B848B878B868B898B888B8B8B89F
:10376A00A8B858B848B878B868B898B888B8B8B88F
:10377A00A8B858B848B878B868B898B888B8B8B87F
:10378A00A8B858B848B878B868B898B888B8B8B86F
:10379A00A8B858B848B878B868B898B888B8B8B85F
:1037AA00A8B858B848B878B868B898B888B8B8B84F
:1037BA00A8B858B848B878B868B898B888B8B8B83F
:1037CA00A8B858B848B878B868B898B888B8B8B82F
:1037DA00A8B858B848B878B868B898B888B8B8B81F
:1037EA00A8B858B848B878B868B898B888B8B8B80F
:1037FA00A8B858B848B878B868B898B888B8B8B8FF
:10380A00A8B858B848B878B868B898B888B8B8B8EE
:10381A00A8B858B848B878B868B898B888B8B8B8DE
:10382A00A8B858B848B878B868B898B888B8B8B8CE
:10383A00A8B858B848B878B868B898B888B8B8B8BE
:10384A00A8B858B848B878B868B898B888B8B8B8AE
:10385A00A8B858B848B878B868B898B888B8B8B89E
:10386A00A8B858B848B878B868B898B888B8B8B88E
:10387A00A8B858B848B878B868B898B888B8B8B87E
:10388A00A8B858B848B878B868B898B888B8B8B86E
:10389A00A8B858B848B878B868B898B888B8B8B85E
:1038AA00A8B858B848B878B868B898B888B8B8B84E
:1038BA00A8B858B848B878B868B898B888B8B8B83E
:1038CA00A8B858B848B878B868B898B888B8B8B82E
:1038DA00A8B858B848B878B868B898B888B8B8B81E
:1038EA00A8B858B848B878B868B898B888B8B8B80E
:1038FA00A8B858B848B878B868B898B888B8B8B8FE
:10390A00A8B858B848B878B868B898B888B8B8B8ED
:10391A00A8B858B848B878B868B898B888B8B8B8DD
:10392A00A8B858B848B878B868B898B888B8B8B8CD
:10393A00A8B858B848B878B868B898B888B8B8B8BD
:10394A00A8B858B848B878B868B898B888B8B8B8AD
:10395A00A8B858B848B878B868B898B888B8B8B89D
:10396A00A8B858B848B878B868B898B888B8B8B88D
:10397A00A8B858B848B878B868B898B888B8B8B87D
:10398A00A8B858B848B878B868B898B888B8B8B86D
:10399A00A8B858B848B878B868B898B888B8B8B85D
:1039AA00A8B858B848B878B868B898B888B8B8B84D
:1039BA00A8B858B848B878B868B898B888B8B8B83D
:1039CA00A8B858B848B878B868B898B888B8B8B82D
:1039DA00A8B858B848B878B868B898B888B8B8B81D
:1039EA00A8B858B848B878B868B898B888B8B8B80D
:1039FA00A8B858B848B878B868B898B888B8B8B8FD
:103A0A00A8B858B848B878B868B898B888B8B8B8EC
:103A1A00A8B858B848B878B868B898B888B8B8B8DC
:103A2A00A8B858B848B878B868B898B888B8B8B8CC
:103A3A00A8B858B848B878B868B898B888B8B8B8BC
:103A4A00A8B858B848B878B868B898B888B8B8B8AC
:103A5A00A8B858B848B878B868B898B888B8B8B89C
:103A6A00A8B858B848B878B868B898B888B8B8B88C
:103A7A00A8B858B848B878B868B898B888B8B8B87C
:103A8A00A8B858B848B878B868B898B888B8B8B86C
:103A9A00A8B858B848B878B868B898B888B8B8B85C
:103AAA00A8B858B848B878B868B898B888B8B8B84C
:103ABA00A8B858B848B878B868B898B888B8B8B83C
:103ACA00A8B858B848B878B868B898B888B8B8B82C
:103ADA00A8B858B848B878B868B898B888B8B8B81C
:103AEA00A8B858B848B878B868B898B888B8B8B80C
:103AFA00A8B858B848B878B868B898B888B8B8B8FC
:103B0A00A8B858B848B878B868B898B888B8B8B8EB
:103B1A00A8B858B848B878B868B898B888B8B8B8DB
:103B2A00A8B858B848B878B868B898B888B8B8B8CB
:103B3A00A8B858B848B878B868B898B888B8B8B8BB
:103B4A00A8B858B848B878B868B898B888B8B8B8AB
:103B5A00A8B858B848B878B868B898B888B8B8B89B
:103B6A00A8B858B848B878B868B898B888B8B8B88B
:103B7A00A8B858B848B878B868B898B888B8B8B87B
:103B8A00A8B858B848B878B868B898B888B8B8B86B
:103B9A00A8B858B848B878B868B898B888B8B8B85B
:103BAA00A8B858B848B878B868B898B888B8B8B84B
:103BBA00A8B858B848B878B868B898B888B8B8B83B
:103BCA00A8B858B848B878B868B898B888B8B8B82B
:103BDA00A8B858B848B878B868B898B888B8B8B81B
:103BEA00A8B858B848B878B868B898B888B8B8B80B
:103BFA00A8B858B848B878B868B898B888B8B8B8FB
:103C0A00A8B858B848B878B868B898B888B8B8B8EA
:103C1A00A8B858B848B878B868B898B888B8B8B8DA
:103C2A00A8B858B848B878B868B898B888B8B8B8CA
:103C3A00A8B858B848B878B868B898B888B8B8B8BA
:103C4A00A8B858B848B878B868B898B888B8B8B8AA
:103C5A00A8B858B848B878B868B898B888B8B8B89A
:103C6A00A8B858B848B878B868B898B888B8B8B88A
:103C7A00A8B858B848B878B868B898B888B8B8B87A
:103C8A00A8B858B848B878B868B898B888B8B8B86A
:103C9A00A8B858B848B878B868B898B888B8B8B85A
:103CAA00A8B858B848B878B868B898B888B8B8B84A
:103CBA00A8B858B848B878B868B898B888B8B8B83A
:103CCA00A8B858B848B878B868B898B888B8B8B82A
:103CDA00A8B858B848B878B868B898B888B8B8B81A
:103CEA00A8B858B848B878B868B898B888B8B8B80A
:103CFA00A8B858B848B878B868B898B888B8B8B8FA
:103D0A00A8B858B848B878B868B898B888B8B8B8E9
:103D1A00A8B858B848B878B868B898B888B8B8B8D9
:103D2A00A8B858B848B878B868B898B888B8B8B8C9
:103D3A00A8B858B848B878B868B898B888B8B8B8B9
:103D4A00A8B858B848B878B868B898B888B8B8B8A9
:103D5A00A8B858B848B878B868B898B888B8B8B899
:103D6A00A8B858B848B878B868B898B888B8B8B889
:103D7A00A8B858B848B878B868B898B888B8B8B879
:103D8A00A8B858B848B878B868B898B888B8B8B869
:103D9A00A8B858B848B878B868B898B888B8B8B859
:103DAA00A8B858B848B878B868B898B888B8B8B849
:103DBA00A8B858B848B878B868B898B888B8B8B839
:103DCA00A8B858B848B878B868B898B888B8B8B829
:103DDA00A8B858B848B878B868B898B888B8B8B819
:103DEA00A8B858B848B878B868B898B888B8B8B809
:103DFA00A8B858B848B878B868B898B888B8B8B8F9
:103E0A00A8B858B848B878B868B898B888B8B8B8E8
:103E1A00A8B858B848B878B868B898B888B8B8B8D8
:103E2A00A8B858B848B878B868B898B888B8B8B8C8
:103E3A00A8B858B848B878B868B898B888B8B8B8B8
:103E4A00A8B858B848B878B868B898B888B8B8B8A8
:103E5A00A8B858B848B878B868B898B888B8B8B898
:103E6A00A8B858B848B878B868B898B888B8B8B888
:103E7A00A8B858B848B878B868B898B888B8B8B878
:103E8A00A8B858B848B878B868B898B888B8B8B868
:103E9A00A8B858B848B878B868B898B888B8B8B858
:103EAA00A8B858B848B878B868B898B888B8B8B848
:103EBA00A8B858B848B878B868B898B888B8B8B838
:103ECA00A8B858B848B878B868B898B888B8B8B828
:103EDA00A8B858B848B878B868B898B888B8B8B818
:103EEA00A8B858B848B878B868B898B888B8B8B808
:103EFA00A8B858B848B878B868B898B888B8B8B8F8
:103F0A00A8B858B848B878B868B898B888B8B8B8E7
:103F1A00A8B858B848B878B868B898B888B8B8B8D7
:103F2A00A8B858B848B878B868B898B888B8B8B8C7
:103F3A00A8B858B848B878B868B898B888B8B8B8B7
:103F4A00A8B858B848B878B868B898B888B8B8B8A7
:103F5A00A8B858B848B878B868B898B888B8B8B897
:103F6A00A8B858B848B878B868B898B888B8B8B887
:103F7A00A8B858B848B878B868B898B888B8B8B877
:103F8A00A8B858B848B878B868B898B888B8B8B867
:103F9A00A8B858B848B878B868B898B888B8B8B857
:103FAA00A8B858B848B878B868B898B888B8B8B847
:103FBA00A8B858B848B878B868B898B888B8B8B837
:103FCA00A8B858B848B878B868B898B888B8B8B827
:103FDA00A8B858B848B878B868B898B888B8B8B817
:103FEA00A8B858B848B878B868B898B888B8B8B807
:103FFA00A8B858B848B878B868B898B888B8B8B8F7
:10400A00A8B858B848B878B868B898B888B8B8B8E6
:10401A00A8B858B848B878B868B898B888B8B8B8D6
:10402A00A8B858B848B878B868B898B888B8B8B8C6
:10403A00A8B858B848B878B868B898B888B8B8B8B6
:10404A00A8B858B848B878B868B898B888B8B8B8A6
:10405A00A8B858B848B878B868B898B888B8B8B896
:10406A00A8B858B848B878B868B898B888B8B8B886
:10407A00A8B858B848B878B868B898B888B8B8B876
:10408A00A8B858B848B878B868B898B888B8B8B866
:10409A00A8B858B848B878B868B898B888B8B8B856
:1040AA00A8B858B848B878B868B898B888B8B8B846
:1040BA00A8B858B848B878B868B898B888B8B8B836
:1040CA00A8B858B848B878B868B898B888B8B8B826
:1040DA00A8B858B848B878B868B898B888B8B8B816
:1040EA00A8B858B848B878B868B898B888B8B8B806
:1040FA00A8B858B848B878B868B898B888B8B8B8F6
:10410A00A8B858B848B878B868B898B888B8B8B8E5
:10411A00A8B858B848B878B868B898B888B8B8B8D5
:10412A00A8B858B848B878B868B898B888B8B8B8C5
:10413A00A8B858B848B878B868B898B888B8B8B8B5
:10414A00A8B858B848B878B868B898B888B8B8B8A5
:10415A00A8B858B848B878B868B898B888B8B8B895
:10416A00A8B858B848B878B868B898B888B8B8B885
:10417A00A8B858B848B878B868B898B888B8B8B875
:10418A00A8B858B848B878B868B898B888B8B8B865
:10419A00A8B858B848B878B868B898B888B8B8B855
:1041AA00A8B858B848B878B868B898B888B8B8B845
:1041BA00A8B858B848B878B868B898B888B8B8B835
:1041CA00A8B858B848B878B868B898B888B8B8B825
:1041DA00A8B858B848B878B868B898B888B8B8B815
:1041EA00A8B858B848B878B868B898B888B8B8B805
:1041FA00A8B858B848B878B868B898B888B8B8B8F5
:10420A00A8B858B848B878B868B898B888B8B8B8E4
:10421A00A8B858B848B878B868B898B888B8B8B8D4
:10422A00A8B858B848B878B868B898B888B8B8B8C4
:10423A00A8B858B848B878B868B898B888B8B8B8B4
:10424A00A8B858B848B878B868B898B888B8B8B8A4
:10425A00A8B858B848B878B868B898B888B8B8B894
:10426A00A8B858B848B878B868B898B888B8B8B884
:10427A00A8B858B848B878B868B898B888B8B8B874
:10428A00A8B858B848B878B868B898B888B8B8B864
:10429A00A8B858B848B878B868B898B888B8B8B854
:1042AA00A8B858B848B878B868B898B888B8B8B844
:1042BA00A8B858B848B878B868B898B888B8B8B834
:1042CA00A8B858B848B878B868B898B888B8B8B824
:1042DA00A8B858B848B878B868B898B888B8B8B814
:1042EA00A8B858B848B878B868B898B888B8B8B804
:1042FA00A8B858B848B878B868B898B888B8B8B8F4
:10430A00A8B858B848B878B868B898B888B8B8B8E3
:10431A00A8B858B848B878B868B898B888B8B8B8D3
:10432A00A8B858B848B878B868B898B888B8B8B8C3
:10433A00A8B858B848B878B868B898B888B8B8B8B3
:10434A00A8B858B848B878B868B898B888B8B8B8A3
:10435A00A8B858B848B878B868B898B888B8B8B893
:10436A00A8B858B848B878B868B898B888B8B8B883
:10437A00A8B858B848B878B868B898B888B8B8B873
:10438A00A8B858B848B878B868B898B888B8B8B863
:10439A00A8B858B848B878B868B898B888B8B8B853
:1043AA00A8B858B848B878B868B898B888B8B8B843
:1043BA00A8B858B848B878B868B898B888B8B8B833
:1043CA00A8B858B848B878B868B898B888B8B8B823
:1043DA00A8B858B848B878B868B898B888B8B8B813
:1043EA00A8B858B848B878B868B898B888B8B8B803
:1043FA00A8B858B848B878B868B898B888B8B8B8F3
:10440A00A8B858B848B878B868B898B888B8B8B8E2
:10441A00A8B858B848B878B868B898B888B8B8B8D2
:10442A00A8B858B848B878B868B898B888B8B8B8C2
:10443A00A8B858B848B878B868B898B888B8B8B8B2
:10444A00A8B858B848B878B868B898B888B8B8B8A2
:10445A00A8B858B848B878B868B898B888B8B8B892
:10446A00A8B858B848B878B868B898B888B8B8B882
:10447A00A8B858B848B878B868B898B888B8B8B872
:10448A00A8B858B848B878B868B898B888B8B8B862
:10449A00A8B858B848B878B868B898B888B8B8B852
:1044AA00A8B858B848B878B868B898B888B8B8B842
:1044BA00A8B858B848B878B868B898B888B8B8B832
:1044CA00A8B858B848B878B868B898B888B8B8B822
:1044DA00A8B858B848B878B868B898B888B8B8B812
:1044EA00A8B858B848B878B868B898B888B8B8B802
:1044FA00A8B858B848B878B868B898B888B8B8B8F2
:10450A00A8B858B848B878B868B898B888B8B8B8E1
:10451A00A8B858B848B878B868B898B888B8B8B8D1
:10452A00A8B858B848B878B868B898B888B8B8B8C1
:10453A00A8B858B848B878B868B898B888B8B8B8B1
:10454A00A8B858B848B878B868B898B888B8B8B8A1
:10455A00A8B858B848B878B868B898B888B8B8B891
:10456A00A8B858B848B878B868B898B888B8B8B881
:10457A00A8B858B848B878B868B898B888B8B8B871
:10458A00A8B858B848B878B868B898B888B8B8B861
:10459A00A8B858B848B878B868B898B888B8B8B851
:1045AA00A8B858B848B878B868B898B888B8B8B841
:1045BA00A8B858B848B878B868B898B888B8B8B831
:1045CA00A8B858B848B878B868B898B888B8B8B821
:1045DA00A8B858B848B878B868B898B888B8B8B811
:1045EA00A8B858B848B878B868B898B888B8B8B801
:1045FA00A8B858B848B878B868B898B888B8B8B8F1
:10460A00A8B858B848B878B868B898B888B8B8B8E0
:10461A00A8B858B848B878B868B898B888B8B8B8D0
:10462A00A8B858B848B878B868B898B888B8B8B8C0
:10463A00A8B858B848B878B868B898B888B8B8B8B0
:10464A00A8B858B848B878B868B898B888B8B8B8A0
:10465A00A8B858B848B878B868B898B888B8B8B890
:10466A00A8B858B848B878B868B898B888B8B8B880
:10467A00A8B858B848B878B868B898B888B8B8B870
:10468A00A8B858B848B878B868B898B888B8B8B860
:10469A00A8B858B848B878B868B898B888B8B8B850
:1046AA00A8B858B848B878B868B898B888B8B8B840
:1046BA00A8B858B848B878B868B898B888B8B8B830
:1046CA00A8B858B848B878B868B898B888B8B8B820
:1046DA00A8B858B848B878B868B898B888B8B8B810
:1046EA00A8B858B848B878B868B898B888B8B8B800
:1046FA00A8B858B848B878B868B898B888B8B8B8F0
:10470A00A8B858B848B878B868B898B888B8B8B8DF
:10471A00A8B858B848B878B868B898B888B8B8B8CF
:10472A00A8B858B848B878B868B898B888B8B8B8BF
:10473A00A8B858B848B878B868B898B888B8B8B8AF
:10474A00A8B858B848B878B868B898B888B8B8B89F
:10475A00A8B858B848B878B868B898B888B8B8B88F
:10476A00A8B858B848B878B868B898B888B8B8B87F
:10477A00A8B858B848B878B868B898B888B8B8B86F
:10478A00A8B858B848B878B868B898B888B8B8B85F
:10479A00A8B858B848B878B868B898B888B8B8B84F
:1047AA00A8B858B848B878B868B898B888B8B8B83F
:1047BA00A8B858B848B878B868B898B888B8B8B82F
:1047CA00A8B858B848B878B868B898B888B8B8B81F
:1047DA00A8B858B848B878B868B898B888B8B8B80F
:1047EA00A8B858B848B878B868B898B888B8B8B8FF
:1047FA00A8B858B848B878B868B898B888B8B8B8EF
:10480A00A8B858B848B878B868B898B888B8B8B8DE
:10481A00A8B858B848B878B868B898B888B8B8B8CE
:10482A00A8B858B848B878B868B898B888B8B8B8BE
:10483A00A8B858B848B878B868B898B888B8B8B8AE
:10484A00A8B858B848B878B868B898B888B8B8B89E
:10485A00A8B858B848B878B868B898B888B8B8B88E
:10486A00A8B858B848B878B868B898B888B8B8B87E
:10487A00A8B858B848B878B868B898B888B8B8B86E
:10488A00A8B858B848B878B868B898B888B8B8B85E
:10489A00A8B858B848B878B868B898B888B8B8B84E
:1048AA00A8B858B848B878B868B898B888B8B8B83E
:1048BA00A8B858B848B878B868B898B888B8B8B82E
:1048CA00A8B858B848B878B868B898B888B8B8B81E
:1048DA00A8B858B848B878B868B898B888B8B8B80E
:1048EA00A8B858B848B878B868B898B888B8B8B8FE
:1048FA00A8B858B848B878B868B898B888B8B8B8EE
:10490A00A8B858B848B878B868B898B888B8B8B8DD
:10491A00A8B858B848B878B868B898B888B8B8B8CD
:10492A00A8B858B848B878B868B898B888B8B8B8BD
:10493A00A8B858B848B878B868B898B888B8B8B8AD
:10494A00A8B858B848B878B868B898B888B8B8B89D
:10495A00A8B858B848B878B868B898B888B8B8B88D
:10496A00A8B858B848B878B868B898B888B8B8B87D
:10497A00A8B858B848B878B868B898B888B8B8B86D
:10498A00A8B858B848B878B868B898B888B8B8B85D
:10499A00A8B858B848B878B868B898B888B8B8B84D
:1049AA00A8B858B848B878B868B898B888B8B8B83D
:1049BA00A8B858B848B878B868B898B888B8B8B82D
:1049CA00A8B858B848B878B868B898B888B8B8B81D
:1049DA00A8B858B848B878B868B898B888B8B8B80D
:1049EA00A8B858B848B878B868B898B888B8B8B8FD
:1049FA00A8B858B848B878B868B898B888B8B8B8ED
:104A0A00A8B858B848B878B868B898B888B8B8B8DC
:104A1A00A8B858B848B878B868B898B888B8B8B8CC
:104A2A00A8B858B848B878B868B898B888B8B8B8BC
:104A3A00A8B858B848B878B868B898B888B8B8B8AC
:104A4A00A8B858B848B878B868B898B888B8B8B89C
:104A5A00A8B858B848B878B868B898B888B8B8B88C
:104A6A00A8B858B848B878B868B898B888B8B8B87C
:104A7A00A8B858B848B878B868B898B888B8B8B86C
:104A8A00A8B858B848B878B868B898B888B8B8B85C
:104A9A00A8B858B848B878B868B898B888B8B8B84C
:104AAA00A8B858B848B878B868B898B888B8B8B83C
:104ABA00A8B858B848B878B868B898B888B8B8B82C
:104ACA00A8B858B848B878B868B898B888B8B8B81C
:104ADA00A8B858B848B878B868B898B888B8B8B80C
:104AEA00A8B858B848B878B868B898B888B8B8B8FC
:104AFA00A8B858B848B878B868B898B888B8B8B8EC
:104B0A00A8B858B848B878B868B898B888B8B8B8DB
:104B1A00A8B858B848B878B868B898B888B8B8B8CB
:104B2A00A8B858B848B878B868B898B888B8B8B8BB
:104B3A00A8B858B848B878B868B898B888B8B8B8AB
:104B4A00A8B858B848B878B868B898B888B8B8B89B
:104B5A00A8B858B848B878B868B898B888B8B8B88B
:104B6A00A8B858B848B878B868B898B888B8B8B87B
:104B7A00A8B858B848B878B868B898B888B8B8B86B
:104B8A00A8B858B848B878B868B898B888B8B8B85B
:104B9A00A8B858B848B878B868B898B888B8B8B84B
:104BAA00A8B858B848B878B868B898B888B8B8B83B
:104BBA00A8B858B848B878B868B898B888B8B8B82B
:104BCA00A8B858B848B878B868B898B888B8B8B81B
:104BDA00A8B858B848B878B868B898B888B8B8B80B
:104BEA00A8B858B848B878B868B898B888B8B8B8FB
:104BFA00A8B858B848B878B868B898B888B8B8B8EB
:104C0A00A8B858B848B878B868B898B888B8B8B8DA
:104C1A00A8B858B848B878B868B898B888B8B8B8CA
:104C2A00A8B858B848B878B868B898B888B8B8B8BA
:104C3A00A8B858B848B878B868B898B888B8B8B8AA
:104C4A00A8B858B848B878B868B898B888B8B8B89A
:104C5A00A8B858B848B878B868B898B888B8B8B88A
:104C6A00A8B858B848B878B868B898B888B8B8B87A
:104C7A00A8B858B848B878B868B898B888B8B8B86A
:104C8A00A8B858B848B878B868B898B888B8B8B85A
:104C9A00A8B858B848B878B868B898B888B8B8B84A
:104CAA00A8B858B848B878B868B898B888B8B8B83A
:104CBA00A8B858B848B878B868B898B888B8B8B82A
:104CCA00A8B858B848B878B868B898B888B8B8B81A
:104CDA00A8B858B848B878B868B898B888B8B8B80A
:104CEA00A8B858B848B878B868B898B888B8B8B8FA
:104CFA00A8B858B848B878B868B898B888B8B8B8EA
:104D0A00A8B858B848B878B868B898B888B8B8B8D9
:104D1A00A8B858B848B878B868B898B888B8B8B8C9
:104D2A00A8B858B848B878B868B898B888B8B8B8B9
:104D3A00A8B858B848B878B868B898B888B8B8B8A9
:104D4A00A8B858B848B878B868B898B888B8B8B899
:104D5A00A8B858B848B878B868B898B888B8B8B889
:104D6A00A8B858B848B878B868B898B888B8B8B879
:104D7A00A8B858B848B878B868B898B888B8B8B869
:104D8A00A8B858B848B878B868B898B888B8B8B859
:104D9A00A8B858B848B878B868B898B888B8B8B849
:104DAA00A8B858B848B878B868B898B888B8B8B839
:104DBA00A8B858B848B878B868B898B888B8B8B829
:104DCA00A8B858B848B878B868B898B888B8B8B819
:104DDA00A8B858B848B878B868B898B888B8B8B809
:104DEA00A8B858B848B878B868B898B888B8B8B8F9
:104DFA00A8B858B848B878B868B898B888B8B8B8E9
:104E0A00A8B858B848B878B868B898B888B8B8B8D8
:104E1A00A8B858B848B878B868B898B888B8B8B8C8
:104E2A00A8B858B848B878B868B898B888B8B8B8B8
:104E3A00A8B858B848B878B868B898B888B8B8B8A8
:104E4A00A8B858B848B878B868B898B888B8B8B898
:104E5A00A8B858B848B878B868B898B888B8B8B888
:104E6A00A8B858B848B878B868B898B888B8B8B878
:104E7A00A8B858B848B878B868B898B888B8B8B868
:104E8A00A8B858B848B878B868B898B888B8B8B858
:104E9A00A8B858B848B878B868B898B888B8B8B848
:104EAA00A8B858B848B878B868B898B888B8B8B838
:104EBA00A8B858B848B878B868B898B888B8B8B828
:104ECA00A8B858B848B878B868B898B888B8B8B818
:104EDA00A8B858B848B878B868B898B888B8B8B808
:104EEA00A8B858B848B878B868B898B888B8B8B8F8
:104EFA00A8B858B848B878B868B898B888B8B8B8E8
:104F0A00A8B858B848B878B868B898B888B8B8B8D7
:104F1A00A8B858B848B878B868B898B888B8B8B8C7
:104F2A00A8B858B848B878B868B898B888B8B8B8B7
:104F3A00A8B858B848B878B868B898B888B8B8B8A7
:104F4A00A8B858B848B878B868B898B888B8B8B897
:104F5A00A8B858B848B878B868B898B888B8B8B887
:104F6A00A8B858B848B878B868B898B888B8B8B877
:104F7A00A8B858B848B878B868B898B888B8B8B867
:104F8A00A8B858B848B878B868B898B888B8B8B857
:104F9A00A8B858B848B878B868B898B888B8B8B847
:104FAA00A8B858B848B878B868B898B888B8B8B837
:104FBA00A8B858B848B878B868B898B888B8B8B827
:104FCA00A8B858B848B878B868B898B888B8B8B817
:104FDA00A8B858B848B878B868B898B888B8B8B807
:104FEA00A8B858B848B878B868B898B888B8B8B8F7
:104FFA00A8B858B848B878B868B898B888B8B8B8E7
:10500A00A8B858B848B878B868B898B888B8B8B8D6
:10501A00A8B858B848B878B868B898B888B8B8B8C6
:10502A00A8B858B848B878B868B898B888B8B8B8B6
:10503A00A8B858B848B878B868B898B888B8B8B8A6
:10504A00A8B858B848B878B868B898B888B8B8B896
:10505A00A8B858B848B878B868B898B888B8B8B886
:10506A00A8B858B848B878B868B898B888B8B8B876
:10507A00A8B858B848B878B868B898B888B8B8B866
:10508A00A8B858B848B878B868B898B888B8B8B856
:10509A00A8B858B848B878B868B898B888B8B8B846
:1050AA00A8B858B848B878B868B898B888B8B8B836
:1050BA00A8B858B848B878B868B898B888B8B8B826
:1050CA00A8B858B848B878B868B898B888B8B8B816
:1050DA00A8B858B848B878B868B898B888B8B8B806
:1050EA00A8B858B848B878B868B898B888B8B8B8F6
:1050FA00A8B858B848B878B868B898B888B8B8B8E6
:10510A00A8B858B848B878B868B898B888B8B8B8D5
:10511A00A8B858B848B878B868B898B888B8B8B8C5
:10512A00A8B858B848B878B868B898B888B8B8B8B5
:10513A00A8B858B848B878B868B898B888B8B8B8A5
:10514A00A8B858B848B878B868B898B888B8B8B895
:10515A00A8B858B848B878B868B898B888B8B8B885
:10516A00A8B858B848B878B868B898B888B8B8B875
:10517A00A8B858B848B878B868B898B888B8B8B865
:10518A00A8B858B848B878B868B898B888B8B8B855
:10519A00A8B858B848B878B868B898B888B8B8B845
:1051AA00A8B858B848B878B868B898B888B8B8B835
:1051BA00A8B858B848B878B868B898B888B8B8B825
:1051CA00A8B858B848B878B868B898B888B8B8B815
:1051DA00A8B858B848B878B868B898B888B8B8B805
:1051EA00A8B858B848B878B868B898B888B8B8B8F5
:1051FA00A8B858B848B878B868B898B888B8B8B8E5
:10520A00A8B858B848B878B868B898B888B8B8B8D4
:10521A00A8B858B848B878B868B898B888B8B8B8C4
:10522A00A8B858B848B878B868B898B888B8B8B8B4
:10523A00A8B858B848B878B868B898B888B8B8B8A4
:10524A00A8B858B848B878B868B898B888B8B8B894
:10525A00A8B858B848B878B868B898B888B8B8B884
:10526A00A8B858B848B878B868B898B888B8B8B874
:10527A00A8B858B848B878B868B898B888B8B8B864
:10528A00A8B858B848B878B868B898B888B8B8B854
:10529A00A8B858B848B878B868B898B888B8B8B844
:1052AA00A8B858B848B878B868B898B888B8B8B834
:1052BA00A8B858B848B878B868B898B888B8B8B824
:1052CA00A8B858B848B878B868B898B888B8B8B814
:1052DA00A8B858B848B878B868B898B888B8B8B804
:1052EA00A8B858B848B878B868B898B888B8B8B8F4
:1052FA00A8B858B848B878B868B898B888B8B8B8E4
:10530A00A8B858B848B878B868B898B888B8B8B8D3
:10531A00A8B858B848B878B868B898B888B8B8B8C3
:10532A00A8B858B848B878B868B898B888B8B8B8B3
:10533A00A8B858B848B878B868B898B888B8B8B8A3
:10534A00A8B858B848B878B868B898B888B8B8B893
:10535A00A8B858B848B878B868B898B888B8B8B883
:10536A00A8B858B848B878B868B898B888B8B8B873
:10537A00A8B858B848B878B868B898B888B8B8B863
:10538A00A8B858B848B878B868B898B888B8B8B853
:10539A00A8B858B848B878B868B898B888B8B8B843
:1053AA00A8B858B848B878B868B898B888B8B8B833
:1053BA00A8B858B848B878B868B898B888B8B8B823
:1053CA00A8B858B848B878B868B898B888B8B8B813
:1053DA00A8B858B848B878B868B898B888B8B8B803
:1053EA00A8B858B848B878B868B898B888B8B8B8F3
:1053FA00A8B858B848B878B868B898B888B8B8B8E3
:10540A00A8B858B848B878B868B898B888B8B8B8D2
:10541A00A8B858B848B878B868B898B888B8B8B8C2
:10542A00A8B858B848B878B868B898B888B8B8B8B2
:10543A00A8B858B848B878B868B898B888B8B8B8A2
:10544A00A8B858B848B878B868B898B888B8B8B892
:10545A00A8B858B848B878B868B898B888B8B8B882
:10546A00A8B858B848B878B868B898B888B8B8B872
:10547A00A8B858B848B878B868B898B888B8B8B862
:10548A00A8B858B848B878B868B898B888B8B8B852
:10549A00A8B858B848B878B868B898B888B8B8B842
:1054AA00A8B858B848B878B868B898B888B8B8B832
:1054BA00A8B858B848B878B868B898B888B8B8B822
:1054CA00A8B858B848B878B868B898B888B8B8B812
:1054DA00A8B858B848B878B868B898B888B8B8B802
:1054EA00A8B858B848B878B868B898B888B8B8B8F2
:1054FA00A8B858B848B878B868B898B888B8B8B8E2
:10550A00A8B858B848B878B868B898B888B8B8B8D1
:10551A00A8B858B848B878B868B898B888B8B8B8C1
:10552A00A8B858B848B878B868B898B888B8B8B8B1
:10553A00A8B858B848B878B868B898B888B8B8B8A1
:10554A00A8B858B848B878B868B898B888B8B8B891
:10555A00A8B858B848B878B868B898B888B8B8B881
:10556A00A8B858B848B878B868B898B888B8B8B871
:10557A00A8B858B848B878B868B898B888B8B8B861
:10558A00A8B858B848B878B868B898B888B8B8B851
:10559A00A8B858B848B878B868B898B888B8B8B841
:1055AA00A8B858B848B878B868B898B888B8B8B831
:1055BA00A8B858B848B878B868B898B888B8B8B821
:1055CA00A8B858B848B878B868B898B888B8B8B811
:1055DA00A8B858B848B878B868B898B888B8B8B801
:1055EA00A8B858B848B878B868B898B888B8B8B8F1
:1055FA00A8B858B848B878B868B898B888B8B8B8E1
:10560A00A8B858B848B878B868B898B888B8B8B8D0
:10561A00A8B858B848B878B868B898B888B8B8B8C0
:10562A00A8B858B848B878B868B898B888B8B8B8B0
:10563A00A8B858B848B878B868B898B888B8B8B8A0
:10564A00A8B858B848B878B868B898B888B8B8B890
:10565A00A8B858B848B878B868B898B888B8B8B880
:10566A00A8B858B848B878B868B898B888B8B8B870
:10567A00A8B858B848B878B868B898B888B8B8B860
:10568A00A8B858B848B878B868B898B888B8B8B850
:10569A00A8B858B848B878B868B898B888B8B8B840
:1056AA00A8B858B848B878B868B898B888B8B8B830
:1056BA00A8B858B848B878B868B898B888B8B8B820
:1056CA00A8B858B848B878B868B898B888B8B8B810
:1056DA00A8B858B848B878B868B898B888B8B8B800
:1056EA00A8B858B848B878B868B898B888B8B8B8F0
:1056FA00A8B858B848B878B868B898B888B8B8B8E0
:10570A00A8B858B848B878B868B898B888B8B8B8CF
:10571A00A8B858B848B878B868B898B888B8B8B8BF
:10572A00A8B858B848B878B868B898B888B8B8B8AF
:10573A00A8B858B848B878B868B898B888B8B8B89F
:10574A00A8B858B848B878B868B898B888B8B8B88F
:10575A00A8B858B848B878B868B898B888B8B8B87F
:10576A00A8B858B848B878B868B898B888B8B8B86F
:10577A00A8B858B848B878B868B898B888B8B8B85F
:10578A00A8B858B848B878B868B898B888B8B8B84F
:10579A00A8B858B848B878B868B898B888B8B8B83F
:1057AA00A8B858B848B878B868B898B888B8B8B82F
:1057BA00A8B858B848B878B868B898B888B8B8B81F
:1057CA00A8B858B848B878B868B898B888B8B8B80F
:1057DA00A8B858B848B878B868B898B888B8B8B8FF
:1057EA00A8B858B848B878B868B898B888B8B8B8EF
:1057FA00A8B858B848B878B868B898B888B8B8B8DF
:10580A00A8B858B848B878B868B898B888B8B8B8CE
:10581A00A8B858B848B878B868B898B888B8B8B8BE
:10582A00A8B858B848B878B868B898B888B8B8B8AE
:10583A00A8B858B848B878B868B898B888B8B8B89E
:10584A00A8B858B848B878B868B898B888B8B8B88E
:10585A00A8B858B848B878B868B898B888B8B8B87E
:10586A00A8B858B848B878B868B898B888B8B8B86E
:10587A00A8B858B848B878B868B898B888B8B8B85E
:10588A00A8B858B848B878B868B898B888B8B8B84E
:10589A00A8B858B848B878B868B898B888B8B8B83E
:1058AA00A8B858B848B878B868B898B888B8B8B82E
:1058BA00A8B858B848B878B868B898B888B8B8B81E
:1058CA00A8B858B848B878B868B898B888B8B8B80E
:1058DA00A8B858B848B878B868B898B888B8B8B8FE
:1058EA00A8B858B848B878B868B898B888B8B8B8EE
:1058FA00A8B858B848B878B868B898B888B8B8B8DE
:10590A00A8B858B848B878B868B898B888B8B8B8CD
:10591A00A8B858B848B878B868B898B888B8B8B8BD
:10592A00A8B858B848B878B868B898B888B8B8B8AD
:10593A00A8B858B848B878B868B898B888B8B8B89D
:10594A00A8B858B848B878B868B898B888B8B8B88D
:10595A00A8B858B848B878B868B898B888B8B8B87D
:10596A00A8B858B848B878B868B898B888B8B8B86D
:10597A00A8B858B848B878B868B898B888B8B8B85D
:10598A00A8B858B848B878B868B898B888B8B8B84D
:10599A00A8B858B848B878B868B898B888B8B8B83D
:1059AA00A8B858B848B878B868B898B888B8B8B82D
:1059BA00A8B858B848B878B868B898B888B8B8B81D
:1059CA00A8B858B848B878B868B898B888B8B8B80D
:1059DA00A8B858B848B878B868B898B888B8B8B8FD
:1059EA00A8B858B848B878B868B898B888B8B8B8ED
:1059FA00A8B858B848B878B868B898B888B8B8B8DD
:105A0A00A8B858B848B878B868B898B888B8B8B8CC
:105A1A00A8B858B848B878B868B898B888B8B8B8BC
:105A2A00A8B858B848B878B868B898B888B8B8B8AC
:105A3A00A8B858B848B878B868B898B888B8B8B89C
:105A4A00A8B858B848B878B868B898B888B8B8B88C
:105A5A00A8B858B848B878B868B898B888B8B8B87C
:105A6A00A8B858B848B878B868B898B888B8B8B86C
:105A7A00A8B858B848B878B868B898B888B8B8B85C
:105A8A00A8B858B848B878B868B898B888B8B8B84C
:105A9A00A8B858B848B878B868B898B888B8B8B83C
:105AAA00A8B858B848B878B868B898B888B8B8B82C
:105ABA00A8B858B848B878B868B898B888B8B8B81C
:105ACA00A8B858B848B878B868B898B888B8B8B80C
